{
	"contractName": "SolnSquareVerifier",
	"abi": [
		{
			"constant": true,
			"inputs": [
				{
					"name": "interfaceId",
					"type": "bytes4"
				}
			],
			"name": "supportsInterface",
			"outputs": [
				{
					"name": "",
					"type": "bool"
				}
			],
			"payable": false,
			"stateMutability": "view",
			"type": "function"
		},
		{
			"constant": true,
			"inputs": [
				{
					"name": "tokenId",
					"type": "uint256"
				}
			],
			"name": "getApproved",
			"outputs": [
				{
					"name": "",
					"type": "address"
				}
			],
			"payable": false,
			"stateMutability": "view",
			"type": "function"
		},
		{
			"constant": false,
			"inputs": [
				{
					"name": "to",
					"type": "address"
				},
				{
					"name": "tokenId",
					"type": "uint256"
				}
			],
			"name": "approve",
			"outputs": [],
			"payable": false,
			"stateMutability": "nonpayable",
			"type": "function"
		},
		{
			"constant": true,
			"inputs": [],
			"name": "getSymbol",
			"outputs": [
				{
					"name": "",
					"type": "string"
				}
			],
			"payable": false,
			"stateMutability": "view",
			"type": "function"
		},
		{
			"constant": false,
			"inputs": [
				{
					"name": "value",
					"type": "bool"
				}
			],
			"name": "setPaused",
			"outputs": [],
			"payable": false,
			"stateMutability": "nonpayable",
			"type": "function"
		},
		{
			"constant": true,
			"inputs": [],
			"name": "getName",
			"outputs": [
				{
					"name": "",
					"type": "string"
				}
			],
			"payable": false,
			"stateMutability": "view",
			"type": "function"
		},
		{
			"constant": true,
			"inputs": [],
			"name": "totalSupply",
			"outputs": [
				{
					"name": "",
					"type": "uint256"
				}
			],
			"payable": false,
			"stateMutability": "view",
			"type": "function"
		},
		{
			"constant": false,
			"inputs": [
				{
					"name": "from",
					"type": "address"
				},
				{
					"name": "to",
					"type": "address"
				},
				{
					"name": "tokenId",
					"type": "uint256"
				}
			],
			"name": "transferFrom",
			"outputs": [],
			"payable": false,
			"stateMutability": "nonpayable",
			"type": "function"
		},
		{
			"constant": false,
			"inputs": [
				{
					"name": "_myid",
					"type": "bytes32"
				},
				{
					"name": "_result",
					"type": "string"
				}
			],
			"name": "__callback",
			"outputs": [],
			"payable": false,
			"stateMutability": "nonpayable",
			"type": "function"
		},
		{
			"constant": true,
			"inputs": [
				{
					"name": "owner",
					"type": "address"
				},
				{
					"name": "index",
					"type": "uint256"
				}
			],
			"name": "tokenOfOwnerByIndex",
			"outputs": [
				{
					"name": "",
					"type": "uint256"
				}
			],
			"payable": false,
			"stateMutability": "view",
			"type": "function"
		},
		{
			"constant": false,
			"inputs": [
				{
					"name": "_myid",
					"type": "bytes32"
				},
				{
					"name": "_result",
					"type": "string"
				},
				{
					"name": "_proof",
					"type": "bytes"
				}
			],
			"name": "__callback",
			"outputs": [],
			"payable": false,
			"stateMutability": "nonpayable",
			"type": "function"
		},
		{
			"constant": false,
			"inputs": [
				{
					"name": "to",
					"type": "address"
				},
				{
					"name": "tokenId",
					"type": "uint256"
				}
			],
			"name": "mint",
			"outputs": [
				{
					"name": "",
					"type": "bool"
				}
			],
			"payable": false,
			"stateMutability": "nonpayable",
			"type": "function"
		},
		{
			"constant": false,
			"inputs": [
				{
					"name": "from",
					"type": "address"
				},
				{
					"name": "to",
					"type": "address"
				},
				{
					"name": "tokenId",
					"type": "uint256"
				}
			],
			"name": "safeTransferFrom",
			"outputs": [],
			"payable": false,
			"stateMutability": "nonpayable",
			"type": "function"
		},
		{
			"constant": true,
			"inputs": [
				{
					"name": "index",
					"type": "uint256"
				}
			],
			"name": "tokenByIndex",
			"outputs": [
				{
					"name": "",
					"type": "uint256"
				}
			],
			"payable": false,
			"stateMutability": "view",
			"type": "function"
		},
		{
			"constant": false,
			"inputs": [
				{
					"name": "a",
					"type": "uint256[2]"
				},
				{
					"name": "b",
					"type": "uint256[2][2]"
				},
				{
					"name": "c",
					"type": "uint256[2]"
				},
				{
					"name": "input",
					"type": "uint256[2]"
				}
			],
			"name": "verifyTx",
			"outputs": [
				{
					"name": "r",
					"type": "bool"
				}
			],
			"payable": false,
			"stateMutability": "nonpayable",
			"type": "function"
		},
		{
			"constant": true,
			"inputs": [
				{
					"name": "tokenId",
					"type": "uint256"
				}
			],
			"name": "ownerOf",
			"outputs": [
				{
					"name": "",
					"type": "address"
				}
			],
			"payable": false,
			"stateMutability": "view",
			"type": "function"
		},
		{
			"constant": true,
			"inputs": [
				{
					"name": "owner",
					"type": "address"
				}
			],
			"name": "balanceOf",
			"outputs": [
				{
					"name": "",
					"type": "uint256"
				}
			],
			"payable": false,
			"stateMutability": "view",
			"type": "function"
		},
		{
			"constant": true,
			"inputs": [],
			"name": "getOwner",
			"outputs": [
				{
					"name": "",
					"type": "address"
				}
			],
			"payable": false,
			"stateMutability": "view",
			"type": "function"
		},
		{
			"constant": false,
			"inputs": [
				{
					"name": "to",
					"type": "address"
				},
				{
					"name": "approved",
					"type": "bool"
				}
			],
			"name": "setApprovalForAll",
			"outputs": [],
			"payable": false,
			"stateMutability": "nonpayable",
			"type": "function"
		},
		{
			"constant": false,
			"inputs": [
				{
					"name": "from",
					"type": "address"
				},
				{
					"name": "to",
					"type": "address"
				},
				{
					"name": "tokenId",
					"type": "uint256"
				},
				{
					"name": "_data",
					"type": "bytes"
				}
			],
			"name": "safeTransferFrom",
			"outputs": [],
			"payable": false,
			"stateMutability": "nonpayable",
			"type": "function"
		},
		{
			"constant": true,
			"inputs": [],
			"name": "getBaseTokenURI",
			"outputs": [
				{
					"name": "",
					"type": "string"
				}
			],
			"payable": false,
			"stateMutability": "view",
			"type": "function"
		},
		{
			"constant": true,
			"inputs": [
				{
					"name": "tokenId",
					"type": "uint256"
				}
			],
			"name": "tokenURI",
			"outputs": [
				{
					"name": "",
					"type": "string"
				}
			],
			"payable": false,
			"stateMutability": "view",
			"type": "function"
		},
		{
			"constant": true,
			"inputs": [
				{
					"name": "owner",
					"type": "address"
				},
				{
					"name": "operator",
					"type": "address"
				}
			],
			"name": "isApprovedForAll",
			"outputs": [
				{
					"name": "",
					"type": "bool"
				}
			],
			"payable": false,
			"stateMutability": "view",
			"type": "function"
		},
		{
			"constant": false,
			"inputs": [
				{
					"name": "newOwner",
					"type": "address"
				}
			],
			"name": "transferOwnership",
			"outputs": [],
			"payable": false,
			"stateMutability": "nonpayable",
			"type": "function"
		},
		{
			"anonymous": false,
			"inputs": [
				{
					"indexed": false,
					"name": "key",
					"type": "bytes32"
				},
				{
					"indexed": false,
					"name": "sender",
					"type": "address"
				}
			],
			"name": "AddedSolution",
			"type": "event"
		},
		{
			"anonymous": false,
			"inputs": [
				{
					"indexed": true,
					"name": "from",
					"type": "address"
				},
				{
					"indexed": true,
					"name": "to",
					"type": "address"
				},
				{
					"indexed": true,
					"name": "tokenId",
					"type": "uint256"
				}
			],
			"name": "Transfer",
			"type": "event"
		},
		{
			"anonymous": false,
			"inputs": [
				{
					"indexed": true,
					"name": "owner",
					"type": "address"
				},
				{
					"indexed": true,
					"name": "approved",
					"type": "address"
				},
				{
					"indexed": true,
					"name": "tokenId",
					"type": "uint256"
				}
			],
			"name": "Approval",
			"type": "event"
		},
		{
			"anonymous": false,
			"inputs": [
				{
					"indexed": true,
					"name": "owner",
					"type": "address"
				},
				{
					"indexed": true,
					"name": "operator",
					"type": "address"
				},
				{
					"indexed": false,
					"name": "approved",
					"type": "bool"
				}
			],
			"name": "ApprovalForAll",
			"type": "event"
		},
		{
			"anonymous": false,
			"inputs": [
				{
					"indexed": false,
					"name": "caller",
					"type": "address"
				}
			],
			"name": "Paused",
			"type": "event"
		},
		{
			"anonymous": false,
			"inputs": [
				{
					"indexed": false,
					"name": "caller",
					"type": "address"
				}
			],
			"name": "Unpaused",
			"type": "event"
		},
		{
			"anonymous": false,
			"inputs": [
				{
					"indexed": false,
					"name": "nextOwner",
					"type": "address"
				}
			],
			"name": "OwnershipTransferred",
			"type": "event"
		},
		{
			"anonymous": false,
			"inputs": [
				{
					"indexed": false,
					"name": "s",
					"type": "string"
				}
			],
			"name": "Verified",
			"type": "event"
		},
		{
			"constant": false,
			"inputs": [
				{
					"name": "to",
					"type": "address"
				},
				{
					"name": "tokenId",
					"type": "uint256"
				},
				{
					"name": "a",
					"type": "uint256[2]"
				},
				{
					"name": "b",
					"type": "uint256[2][2]"
				},
				{
					"name": "c",
					"type": "uint256[2]"
				},
				{
					"name": "inputs",
					"type": "uint256[2]"
				}
			],
			"name": "mintVerified",
			"outputs": [],
			"payable": false,
			"stateMutability": "nonpayable",
			"type": "function"
		}
	],
	"bytecode": "0x60806040526040518060600160405280603f815260200162004ca9603f913960139080519060200190620000359291906200055b565b506040518060400160405280600f81526020017f5265616c457374617465546f6b656e00000000000000000000000000000000008152506040518060400160405280600381526020017f5245540000000000000000000000000000000000000000000000000000000000815250818160138054600181600116156101000203166002900480601f0160208091040260200160405190810160405280929190818152602001828054600181600116156101000203166002900480156200013e5780601f1062000112576101008083540402835291602001916200013e565b820191906000526020600020905b8154815290600101906020018083116200012057829003601f168201915b5050505050336000806101000a81548173ffffffffffffffffffffffffffffffffffffffff021916908373ffffffffffffffffffffffffffffffffffffffff1602179055507f04dba622d284ed0014ee4b9a6a68386be1a4c08a4913ae272de89199cc6861636000809054906101000a900473ffffffffffffffffffffffffffffffffffffffff16604051808273ffffffffffffffffffffffffffffffffffffffff1673ffffffffffffffffffffffffffffffffffffffff16815260200191505060405180910390a16200021960006200031060201b60201c565b620002316301ffc9a760e01b620004b960201b60201c565b620002496380ac58cd60e01b620004b960201b60201c565b6200026163780e9d6360e01b620004b960201b60201c565b82600f9080519060200190620002799291906200055b565b508160109080519060200190620002929291906200055b565b508060119080519060200190620002ab9291906200055b565b50620002c4635b5e139f60e01b620004b960201b60201c565b50505033601460006101000a81548173ffffffffffffffffffffffffffffffffffffffff021916908373ffffffffffffffffffffffffffffffffffffffff16021790555050506200060a565b6000809054906101000a900473ffffffffffffffffffffffffffffffffffffffff1673ffffffffffffffffffffffffffffffffffffffff163373ffffffffffffffffffffffffffffffffffffffff16141515620003b9576040517f08c379a000000000000000000000000000000000000000000000000000000000815260040180806020018281038252602181526020018062004c886021913960400191505060405180910390fd5b80600060146101000a81548160ff021916908315150217905550600060149054906101000a900460ff161562000452577f62e78cea01bee320cd4e420270b5ea74000d11b0c9f74754ebdbfc544b05a25833604051808273ffffffffffffffffffffffffffffffffffffffff1673ffffffffffffffffffffffffffffffffffffffff16815260200191505060405180910390a1620004b6565b7f5db9ee0a495bf2e6ff9c91a7834c1ba4fdd244a5e8aa4e537bd38aeae4b073aa33604051808273ffffffffffffffffffffffffffffffffffffffff1673ffffffffffffffffffffffffffffffffffffffff16815260200191505060405180910390a15b50565b63ffffffff60e01b817bffffffffffffffffffffffffffffffffffffffffffffffffffffffff191614151515620004ef57600080fd5b6001806000837bffffffffffffffffffffffffffffffffffffffffffffffffffffffff19167bffffffffffffffffffffffffffffffffffffffffffffffffffffffff1916815260200190815260200160002060006101000a81548160ff02191690831515021790555050565b828054600181600116156101000203166002900490600052602060002090601f016020900481019282601f106200059e57805160ff1916838001178555620005cf565b82800160010185558215620005cf579182015b82811115620005ce578251825591602001919060010190620005b1565b5b509050620005de9190620005e2565b5090565b6200060791905b8082111562000603576000816000905550600101620005e9565b5090565b90565b61466e806200061a6000396000f3fe608060405234801561001057600080fd5b50600436106101735760003560e01c806342842e0e116100de578063a22cb46511610097578063bdc32be011610071578063bdc32be014610d5d578063c87b56dd14610de0578063e985e9c514610e87578063f2fde38b14610f0357610173565b8063a22cb46514610a7d578063b8395aec14610acd578063b88d4fde14610c5857610173565b806342842e0e146107445780634f6ccce7146107b2578063621e9ec0146107f45780636352211e1461096d57806370a08231146109db578063893d20e814610a3357610173565b806318160ddd1161013057806318160ddd146103cf57806323b872dd146103ed57806327dc297e1461045b5780632f745c591461052057806338bbfa501461058257806340c10f19146106de57610173565b806301ffc9a714610178578063081812fc146101dd578063095ea7b31461024b578063150704011461029957806316c38b3c1461031c57806317d7de7c1461034c575b600080fd5b6101c36004803603602081101561018e57600080fd5b8101908080357bffffffffffffffffffffffffffffffffffffffffffffffffffffffff19169060200190929190505050610f47565b604051808215151515815260200191505060405180910390f35b610209600480360360208110156101f357600080fd5b8101908080359060200190929190505050610faf565b604051808273ffffffffffffffffffffffffffffffffffffffff1673ffffffffffffffffffffffffffffffffffffffff16815260200191505060405180910390f35b6102976004803603604081101561026157600080fd5b81019080803573ffffffffffffffffffffffffffffffffffffffff16906020019092919080359060200190929190505050611069565b005b6102a16112a6565b6040518080602001828103825283818151815260200191508051906020019080838360005b838110156102e15780820151818401526020810190506102c6565b50505050905090810190601f16801561030e5780820380516001836020036101000a031916815260200191505b509250505060405180910390f35b61034a6004803603602081101561033257600080fd5b81019080803515159060200190929190505050611348565b005b6103546114ed565b6040518080602001828103825283818151815260200191508051906020019080838360005b83811015610394578082015181840152602081019050610379565b50505050905090810190601f1680156103c15780820380516001836020036101000a031916815260200191505b509250505060405180910390f35b6103d761158f565b6040518082815260200191505060405180910390f35b6104596004803603606081101561040357600080fd5b81019080803573ffffffffffffffffffffffffffffffffffffffff169060200190929190803573ffffffffffffffffffffffffffffffffffffffff1690602001909291908035906020019092919050505061159c565b005b61051e6004803603604081101561047157600080fd5b81019080803590602001909291908035906020019064010000000081111561049857600080fd5b8201836020820111156104aa57600080fd5b803590602001918460018302840111640100000000831117156104cc57600080fd5b91908080601f016020809104026020016040519081016040528093929190818152602001838380828437600081840152601f19601f8201169050808301925050505050505091929192905050506115c1565b005b61056c6004803603604081101561053657600080fd5b81019080803573ffffffffffffffffffffffffffffffffffffffff16906020019092919080359060200190929190505050611604565b6040518082815260200191505060405180910390f35b6106dc6004803603606081101561059857600080fd5b8101908080359060200190929190803590602001906401000000008111156105bf57600080fd5b8201836020820111156105d157600080fd5b803590602001918460018302840111640100000000831117156105f357600080fd5b91908080601f016020809104026020016040519081016040528093929190818152602001838380828437600081840152601f19601f8201169050808301925050505050505091929192908035906020019064010000000081111561065657600080fd5b82018360208201111561066857600080fd5b8035906020019184600183028401116401000000008311171561068a57600080fd5b91908080601f016020809104026020016040519081016040528093929190818152602001838380828437600081840152601f19601f82011690508083019250505050505050919291929050505061167b565b005b61072a600480360360408110156106f457600080fd5b81019080803573ffffffffffffffffffffffffffffffffffffffff1690602001909291908035906020019092919050505061169e565b604051808215151515815260200191505060405180910390f35b6107b06004803603606081101561075a57600080fd5b81019080803573ffffffffffffffffffffffffffffffffffffffff169060200190929190803573ffffffffffffffffffffffffffffffffffffffff169060200190929190803590602001909291905050506117e9565b005b6107de600480360360208110156107c857600080fd5b8101908080359060200190929190505050611809565b6040518082815260200191505060405180910390f35b610953600480360361014081101561080b57600080fd5b8101908080604001906002806020026040519081016040528092919082600260200280828437600081840152601f19601f82011690508083019250505050505091929192908060800190600280602002604051908101604052809291906000905b828210156108c0578382604002016002806020026040519081016040528092919082600260200280828437600081840152601f19601f8201169050808301925050505050508152602001906001019061086c565b50505050919291929080604001906002806020026040519081016040528092919082600260200280828437600081840152601f19601f820116905080830192505050505050919291929080604001906002806020026040519081016040528092919082600260200280828437600081840152601f19601f8201169050808301925050505050509192919290505050611841565b604051808215151515815260200191505060405180910390f35b6109996004803603602081101561098357600080fd5b8101908080359060200190929190505050611aa6565b604051808273ffffffffffffffffffffffffffffffffffffffff1673ffffffffffffffffffffffffffffffffffffffff16815260200191505060405180910390f35b610a1d600480360360208110156109f157600080fd5b81019080803573ffffffffffffffffffffffffffffffffffffffff169060200190929190505050611ae3565b6040518082815260200191505060405180910390f35b610a3b611b33565b604051808273ffffffffffffffffffffffffffffffffffffffff1673ffffffffffffffffffffffffffffffffffffffff16815260200191505060405180910390f35b610acb60048036036040811015610a9357600080fd5b81019080803573ffffffffffffffffffffffffffffffffffffffff169060200190929190803515159060200190929190505050611b5c565b005b610c566004803603610180811015610ae457600080fd5b81019080803573ffffffffffffffffffffffffffffffffffffffff1690602001909291908035906020019092919080604001906002806020026040519081016040528092919082600260200280828437600081840152601f19601f82011690508083019250505050505091929192908060800190600280602002604051908101604052809291906000905b82821015610bc3578382604002016002806020026040519081016040528092919082600260200280828437600081840152601f19601f82011690508083019250505050505081526020019060010190610b6f565b50505050919291929080604001906002806020026040519081016040528092919082600260200280828437600081840152601f19601f820116905080830192505050505050919291929080604001906002806020026040519081016040528092919082600260200280828437600081840152601f19601f8201169050808301925050505050509192919290505050611c98565b005b610d5b60048036036080811015610c6e57600080fd5b81019080803573ffffffffffffffffffffffffffffffffffffffff169060200190929190803573ffffffffffffffffffffffffffffffffffffffff1690602001909291908035906020019092919080359060200190640100000000811115610cd557600080fd5b820183602082011115610ce757600080fd5b80359060200191846001830284011164010000000083111715610d0957600080fd5b91908080601f016020809104026020016040519081016040528093929190818152602001838380828437600081840152601f19601f820116905080830192505050505050509192919290505050611ed5565b005b610d65611efd565b6040518080602001828103825283818151815260200191508051906020019080838360005b83811015610da5578082015181840152602081019050610d8a565b50505050905090810190601f168015610dd25780820380516001836020036101000a031916815260200191505b509250505060405180910390f35b610e0c60048036036020811015610df657600080fd5b8101908080359060200190929190505050611f9f565b6040518080602001828103825283818151815260200191508051906020019080838360005b83811015610e4c578082015181840152602081019050610e31565b50505050905090810190601f168015610e795780820380516001836020036101000a031916815260200191505b509250505060405180910390f35b610ee960048036036040811015610e9d57600080fd5b81019080803573ffffffffffffffffffffffffffffffffffffffff169060200190929190803573ffffffffffffffffffffffffffffffffffffffff169060200190929190505050612068565b604051808215151515815260200191505060405180910390f35b610f4560048036036020811015610f1957600080fd5b81019080803573ffffffffffffffffffffffffffffffffffffffff1690602001909291905050506120fc565b005b600060016000837bffffffffffffffffffffffffffffffffffffffffffffffffffffffff19167bffffffffffffffffffffffffffffffffffffffffffffffffffffffff1916815260200190815260200160002060009054906101000a900460ff169050919050565b6000610fba826122d1565b151561102e576040517f08c379a000000000000000000000000000000000000000000000000000000000815260040180806020018281038252601e8152602001807f526571756972657320746f6b656e2061637475616c6c7920657869737473000081525060200191505060405180910390fd5b6003600083815260200190815260200160002060009054906101000a900473ffffffffffffffffffffffffffffffffffffffff169050919050565b6002600082815260200190815260200160002060009054906101000a900473ffffffffffffffffffffffffffffffffffffffff1673ffffffffffffffffffffffffffffffffffffffff168273ffffffffffffffffffffffffffffffffffffffff1614151515611123576040517f08c379a00000000000000000000000000000000000000000000000000000000081526004018080602001828103825260388152602001806145c96038913960400191505060405180910390fd5b61112b611b33565b73ffffffffffffffffffffffffffffffffffffffff163373ffffffffffffffffffffffffffffffffffffffff1614158061116b575061116a3383612068565b5b15156111c2576040517f08c379a00000000000000000000000000000000000000000000000000000000081526004018080602001828103825260428152602001806146016042913960600191505060405180910390fd5b816003600083815260200190815260200160002060006101000a81548173ffffffffffffffffffffffffffffffffffffffff021916908373ffffffffffffffffffffffffffffffffffffffff160217905550808273ffffffffffffffffffffffffffffffffffffffff166002600084815260200190815260200160002060009054906101000a900473ffffffffffffffffffffffffffffffffffffffff1673ffffffffffffffffffffffffffffffffffffffff167f8c5be1e5ebec7d5bd14f71427d1e84f3dd0314c0f7b2291e5b200ac8c7c3b92560405160405180910390a45050565b606060108054600181600116156101000203166002900480601f01602080910402602001604051908101604052809291908181526020018280546001816001161561010002031660029004801561133e5780601f106113135761010080835404028352916020019161133e565b820191906000526020600020905b81548152906001019060200180831161132157829003601f168201915b5050505050905090565b6000809054906101000a900473ffffffffffffffffffffffffffffffffffffffff1673ffffffffffffffffffffffffffffffffffffffff163373ffffffffffffffffffffffffffffffffffffffff161415156113ef576040517f08c379a00000000000000000000000000000000000000000000000000000000081526004018080602001828103825260218152602001806145616021913960400191505060405180910390fd5b80600060146101000a81548160ff021916908315150217905550600060149054906101000a900460ff1615611486577f62e78cea01bee320cd4e420270b5ea74000d11b0c9f74754ebdbfc544b05a25833604051808273ffffffffffffffffffffffffffffffffffffffff1673ffffffffffffffffffffffffffffffffffffffff16815260200191505060405180910390a16114ea565b7f5db9ee0a495bf2e6ff9c91a7834c1ba4fdd244a5e8aa4e537bd38aeae4b073aa33604051808273ffffffffffffffffffffffffffffffffffffffff1673ffffffffffffffffffffffffffffffffffffffff16815260200191505060405180910390a15b50565b6060600f8054600181600116156101000203166002900480601f0160208091040260200160405190810160405280929190818152602001828054600181600116156101000203166002900480156115855780601f1061155a57610100808354040283529160200191611585565b820191906000526020600020905b81548152906001019060200180831161156857829003601f168201915b5050505050905090565b6000600880549050905090565b6115a63382612343565b15156115b157600080fd5b6115bc8383836123d8565b505050565b611600828260006040519080825280601f01601f1916602001820160405280156115fa5781602001600182028038833980820191505090505b5061167b565b5050565b600061160f83611ae3565b8210151561161c57600080fd5b600660008473ffffffffffffffffffffffffffffffffffffffff1673ffffffffffffffffffffffffffffffffffffffff1681526020019081526020016000208281548110151561166857fe5b9060005260206000200154905092915050565b6000801b600d60008060001b815260200190815260200160002081905550505050565b60008060009054906101000a900473ffffffffffffffffffffffffffffffffffffffff1673ffffffffffffffffffffffffffffffffffffffff163373ffffffffffffffffffffffffffffffffffffffff16141515611747576040517f08c379a00000000000000000000000000000000000000000000000000000000081526004018080602001828103825260218152602001806145616021913960400191505060405180910390fd5b600060149054906101000a900460ff161515156117cc576040517f08c379a000000000000000000000000000000000000000000000000000000000815260040180806020018281038252601f8152602001807f526571756972657320636f6e7472616374206973206e6f74207061757365640081525060200191505060405180910390fd5b6117d683836123fc565b6117df8261241d565b6001905092915050565b61180483838360405180602001604052806000815250611ed5565b505050565b600061181361158f565b8210151561182057600080fd5b60088281548110151561182f57fe5b90600052602060002001549050919050565b600061184b61430b565b604051806040016040528087600060028110151561186557fe5b6020020151815260200187600160028110151561187e57fe5b60200201518152508160000181905250604051806040016040528060405180604001604052808860006002811015156118b357fe5b602002015160006002811015156118c657fe5b602002015181526020018860006002811015156118df57fe5b602002015160016002811015156118f257fe5b60200201518152508152602001604051806040016040528088600160028110151561191957fe5b6020020151600060028110151561192c57fe5b6020020151815260200188600160028110151561194557fe5b6020020151600160028110151561195857fe5b60200201518152508152508160200181905250604051806040016040528085600060028110151561198557fe5b6020020151815260200185600160028110151561199e57fe5b60200201518152508160400181905250606060026040519080825280602002602001820160405280156119e05781602001602082028038833980820191505090505b50905060008090505b6002811015611a2e578481600281101515611a0057fe5b60200201518282815181101515611a1357fe5b906020019060200201818152505080806001019150506119e9565b506000611a3b8284612570565b1415611a97577f3f3cfdb26fb5f9f1786ab4f1a1f9cd4c0b5e726cbdfc26e495261731aad44e396040518080602001828103825260228152602001806145826022913960400191505060405180910390a1600192505050611a9e565b6000925050505b949350505050565b60006002600083815260200190815260200160002060009054906101000a900473ffffffffffffffffffffffffffffffffffffffff169050919050565b6000611b2c600460008473ffffffffffffffffffffffffffffffffffffffff1673ffffffffffffffffffffffffffffffffffffffff1681526020019081526020016000206126f8565b9050919050565b60008060009054906101000a900473ffffffffffffffffffffffffffffffffffffffff16905090565b3373ffffffffffffffffffffffffffffffffffffffff168273ffffffffffffffffffffffffffffffffffffffff1614151515611b9757600080fd5b80600560003373ffffffffffffffffffffffffffffffffffffffff1673ffffffffffffffffffffffffffffffffffffffff16815260200190815260200160002060008473ffffffffffffffffffffffffffffffffffffffff1673ffffffffffffffffffffffffffffffffffffffff16815260200190815260200160002060006101000a81548160ff0219169083151502179055508173ffffffffffffffffffffffffffffffffffffffff163373ffffffffffffffffffffffffffffffffffffffff167f17307eab39ab6107e8899845ad3d59bd9653f200f220920489ca2b5937696c3183604051808215151515815260200191505060405180910390a35050565b6000848484846040516020018085600260200280838360005b83811015611ccc578082015181840152602081019050611cb1565b505050509050018460026000925b81841015611d205782846020020151600260200280838360005b83811015611d0f578082015181840152602081019050611cf4565b505050509050019260010192611cda565b9250505083600260200280838360005b83811015611d4b578082015181840152602081019050611d30565b5050505090500182600260200280838360005b83811015611d79578082015181840152602081019050611d5e565b505050509050019450505050506040516020818303038152906040528051906020012090506015600082815260200190815260200160002060000160009054906101000a900460ff16151515611e37576040517f08c379a000000000000000000000000000000000000000000000000000000000815260040180806020018281038252601a8152602001807f536f6c7574696f6e20697320616c726561647920696e2075736500000000000081525060200191505060405180910390fd5b611e4385858585611841565b1515611eb7576040517f08c379a000000000000000000000000000000000000000000000000000000000815260040180806020018281038252601b8152602001807f50726f6f66206973206e6f74205a6f6b72617465732076616c6964000000000081525060200191505060405180910390fd5b611ec18133612706565b611ecb878761169e565b5050505050505050565b611ee084848461159c565b611eec84848484612892565b1515611ef757600080fd5b50505050565b606060118054600181600116156101000203166002900480601f016020809104026020016040519081016040528092919081815260200182805460018160011615610100020316600290048015611f955780601f10611f6a57610100808354040283529160200191611f95565b820191906000526020600020905b815481529060010190602001808311611f7857829003601f168201915b5050505050905090565b6060611faa826122d1565b1515611fb557600080fd5b601260008381526020019081526020016000208054600181600116156101000203166002900480601f01602080910402602001604051908101604052809291908181526020018280546001816001161561010002031660029004801561205c5780601f106120315761010080835404028352916020019161205c565b820191906000526020600020905b81548152906001019060200180831161203f57829003601f168201915b50505050509050919050565b6000600560008473ffffffffffffffffffffffffffffffffffffffff1673ffffffffffffffffffffffffffffffffffffffff16815260200190815260200160002060008373ffffffffffffffffffffffffffffffffffffffff1673ffffffffffffffffffffffffffffffffffffffff16815260200190815260200160002060009054906101000a900460ff16905092915050565b6000809054906101000a900473ffffffffffffffffffffffffffffffffffffffff1673ffffffffffffffffffffffffffffffffffffffff163373ffffffffffffffffffffffffffffffffffffffff161415156121a3576040517f08c379a00000000000000000000000000000000000000000000000000000000081526004018080602001828103825260218152602001806145616021913960400191505060405180910390fd5b600073ffffffffffffffffffffffffffffffffffffffff168173ffffffffffffffffffffffffffffffffffffffff161415151561222b576040517f08c379a000000000000000000000000000000000000000000000000000000000815260040180806020018281038252602681526020018061453b6026913960400191505060405180910390fd5b806000806101000a81548173ffffffffffffffffffffffffffffffffffffffff021916908373ffffffffffffffffffffffffffffffffffffffff1602179055507f04dba622d284ed0014ee4b9a6a68386be1a4c08a4913ae272de89199cc68616381604051808273ffffffffffffffffffffffffffffffffffffffff1673ffffffffffffffffffffffffffffffffffffffff16815260200191505060405180910390a150565b6000806002600084815260200190815260200160002060009054906101000a900473ffffffffffffffffffffffffffffffffffffffff169050600073ffffffffffffffffffffffffffffffffffffffff168173ffffffffffffffffffffffffffffffffffffffff161415915050919050565b60008061234f83611aa6565b90508073ffffffffffffffffffffffffffffffffffffffff168473ffffffffffffffffffffffffffffffffffffffff1614806123be57508373ffffffffffffffffffffffffffffffffffffffff166123a684610faf565b73ffffffffffffffffffffffffffffffffffffffff16145b806123cf57506123ce8185612068565b5b91505092915050565b6123e3838383612a7d565b6123ed8382612d41565b6123f78282612ee5565b505050565b6124068282612fac565b6124108282612ee5565b612419816131ab565b5050565b612426816122d1565b151561249a576040517f08c379a00000000000000000000000000000000000000000000000000000000081526004018080602001828103825260158152602001807f526571756972657320746f6b656e20657869737473000000000000000000000081525060200191505060405180910390fd5b61254660118054600181600116156101000203166002900480601f0160208091040260200160405190810160405280929190818152602001828054600181600116156101000203166002900480156125335780601f1061250857610100808354040283529160200191612533565b820191906000526020600020905b81548152906001019060200180831161251657829003601f168201915b5050505050612541836131f7565b613331565b60126000838152602001908152602001600020908051906020019061256c92919061433f565b5050565b6000807f30644e72e131a029b85045b68181585d2833e84879b9709143e1f593f0000001905061259e6143bf565b6125a6613375565b905080608001515160018651011415156125bf57600080fd5b6125c7614407565b6040518060400160405280600081526020016000815250905060008090505b865181101561266b578387828151811015156125fe57fe5b9060200190602002015110151561261457600080fd5b61265c8261265785608001516001850181518110151561263057fe5b906020019060200201518a8581518110151561264857fe5b906020019060200201516137cf565b61386b565b915080806001019150506125e6565b50612692818360800151600081518110151561268357fe5b9060200190602002015161386b565b90506126d8856000015186602001516126aa84613928565b85604001516126bc8a60400151613928565b87606001516126ce8960000151613928565b89602001516139c4565b15156126ea57600193505050506126f2565b600093505050505b92915050565b600081600001549050919050565b6015600083815260200190815260200160002060000160009054906101000a900460ff1615151561279f576040517f08c379a000000000000000000000000000000000000000000000000000000000815260040180806020018281038252601a8152602001807f536f6c7574696f6e20697320616c726561647920696e2075736500000000000081525060200191505060405180910390fd5b60016015600084815260200190815260200160002060000160006101000a81548160ff021916908315150217905550806015600084815260200190815260200160002060000160016101000a81548173ffffffffffffffffffffffffffffffffffffffff021916908373ffffffffffffffffffffffffffffffffffffffff1602179055507f794f800bcc1704bbac3deeba70adfa76e678654f9b36f11b1e02eeb99c498ea08282604051808381526020018273ffffffffffffffffffffffffffffffffffffffff1673ffffffffffffffffffffffffffffffffffffffff1681526020019250505060405180910390a15050565b60006128b38473ffffffffffffffffffffffffffffffffffffffff16613b48565b15156128c25760019050612a75565b60008473ffffffffffffffffffffffffffffffffffffffff1663150b7a02338887876040518563ffffffff1660e01b8152600401808573ffffffffffffffffffffffffffffffffffffffff1673ffffffffffffffffffffffffffffffffffffffff1681526020018473ffffffffffffffffffffffffffffffffffffffff1673ffffffffffffffffffffffffffffffffffffffff16815260200183815260200180602001828103825283818151815260200191508051906020019080838360005b8381101561299d578082015181840152602081019050612982565b50505050905090810190601f1680156129ca5780820380516001836020036101000a031916815260200191505b5095505050505050602060405180830381600087803b1580156129ec57600080fd5b505af1158015612a00573d6000803e3d6000fd5b505050506040513d6020811015612a1657600080fd5b8101908080519060200190929190505050905063150b7a0260e01b7bffffffffffffffffffffffffffffffffffffffffffffffffffffffff1916817bffffffffffffffffffffffffffffffffffffffffffffffffffffffff1916149150505b949350505050565b6002600082815260200190815260200160002060009054906101000a900473ffffffffffffffffffffffffffffffffffffffff1673ffffffffffffffffffffffffffffffffffffffff168373ffffffffffffffffffffffffffffffffffffffff16141515612b53576040517f08c379a00000000000000000000000000000000000000000000000000000000081526004018080602001828103825260188152602001807f5265717569726573206f776e65722069732073656e646572000000000000000081525060200191505060405180910390fd5b600073ffffffffffffffffffffffffffffffffffffffff168273ffffffffffffffffffffffffffffffffffffffff1614151515612bf8576040517f08c379a000000000000000000000000000000000000000000000000000000000815260040180806020018281038252601d8152602001807f52657175697265732061646472657373206973206e6f7420656d70747900000081525060200191505060405180910390fd5b612c0181613b93565b612c48600460008473ffffffffffffffffffffffffffffffffffffffff1673ffffffffffffffffffffffffffffffffffffffff168152602001908152602001600020613c53565b612c8f600460008573ffffffffffffffffffffffffffffffffffffffff1673ffffffffffffffffffffffffffffffffffffffff168152602001908152602001600020613c69565b816002600083815260200190815260200160002060006101000a81548173ffffffffffffffffffffffffffffffffffffffff021916908373ffffffffffffffffffffffffffffffffffffffff160217905550808273ffffffffffffffffffffffffffffffffffffffff168473ffffffffffffffffffffffffffffffffffffffff167fddf252ad1be2c89b69c2b068fc378daa952ba7f163c4a11628f55a4df523b3ef60405160405180910390a4505050565b6000612d996001600660008673ffffffffffffffffffffffffffffffffffffffff1673ffffffffffffffffffffffffffffffffffffffff16815260200190815260200160002080549050613c8c90919063ffffffff16565b90506000600760008481526020019081526020016000205490508181141515612e8c576000600660008673ffffffffffffffffffffffffffffffffffffffff1673ffffffffffffffffffffffffffffffffffffffff16815260200190815260200160002083815481101515612e0a57fe5b9060005260206000200154905080600660008773ffffffffffffffffffffffffffffffffffffffff1673ffffffffffffffffffffffffffffffffffffffff16815260200190815260200160002083815481101515612e6457fe5b9060005260206000200181905550816007600083815260200190815260200160002081905550505b600660008573ffffffffffffffffffffffffffffffffffffffff1673ffffffffffffffffffffffffffffffffffffffff168152602001908152602001600020805480919060019003612ede9190614421565b5050505050565b600660008373ffffffffffffffffffffffffffffffffffffffff1673ffffffffffffffffffffffffffffffffffffffff168152602001908152602001600020805490506007600083815260200190815260200160002081905550600660008373ffffffffffffffffffffffffffffffffffffffff1673ffffffffffffffffffffffffffffffffffffffff1681526020019081526020016000208190806001815401808255809150509060018203906000526020600020016000909192909190915055505050565b612fb5816122d1565b15151561300d576040517f08c379a00000000000000000000000000000000000000000000000000000000081526004018080602001828103825260258152602001806145a46025913960400191505060405180910390fd5b600073ffffffffffffffffffffffffffffffffffffffff168273ffffffffffffffffffffffffffffffffffffffff16141515156130b2576040517f08c379a000000000000000000000000000000000000000000000000000000000815260040180806020018281038252601e8152602001807f5265717569726573206164646472657373206973206e6f7420656d707479000081525060200191505060405180910390fd5b816002600083815260200190815260200160002060006101000a81548173ffffffffffffffffffffffffffffffffffffffff021916908373ffffffffffffffffffffffffffffffffffffffff16021790555061314b600460008473ffffffffffffffffffffffffffffffffffffffff1673ffffffffffffffffffffffffffffffffffffffff168152602001908152602001600020613c53565b808273ffffffffffffffffffffffffffffffffffffffff16600073ffffffffffffffffffffffffffffffffffffffff167fddf252ad1be2c89b69c2b068fc378daa952ba7f163c4a11628f55a4df523b3ef60405160405180910390a45050565b6008805490506009600083815260200190815260200160002081905550600881908060018154018082558091505090600182039060005260206000200160009091929091909150555050565b6060600082141561323f576040518060400160405280600181526020017f3000000000000000000000000000000000000000000000000000000000000000815250905061332c565b600082905060005b60008214151561326d578080600101915050600a8281151561326557fe5b049150613247565b6060816040519080825280601f01601f1916602001820160405280156132a25781602001600182028038833980820191505090505b50905060006001830390505b60008614151561332457600a868115156132c457fe5b0660300160f81b8282806001900393508151811015156132e057fe5b9060200101907effffffffffffffffffffffffffffffffffffffffffffffffffffffffffffff1916908160001a905350600a8681151561331c57fe5b0495506132ae565b819450505050505b919050565b606061336d8383604051806020016040528060008152506040518060200160405280600081525060405180602001604052806000815250613cd6565b905092915050565b61337d6143bf565b60405180604001604052807f15dbf86cf49c8fb3cea1bf79752eee1e4f8607fedc5a8756d155b67dc181964081526020017f09865873e4e75c7fc93eb3c87b93f3bfc16025f42e10fdfbe6e90b7df4ba38798152508160000181905250604051806040016040528060405180604001604052807f0f3520f3bdc2900eb56b84b098ffd8087fab2298d50c08c1adda952af8bcbaed81526020017f29fcb850828e4c051eefb3cacd794d8129ae655b647318b12c40900aba23e278815250815260200160405180604001604052807f0b5d45db4177dc6e0bd19830eab33c42f44888751a710ea48e3bc0da70b0f9cf81526020017f2c1436f5469c7d31deb22bde2392b8b336494f67a3bd8386926f4d6013ecc4c78152508152508160200181905250604051806040016040528060405180604001604052807f2e3dfc112b9842ca1db3f531bff67da12448ca2535eb4c4a06f8419870f1164981526020017f111f2157df84fde4acb087ceffabf4cc6d9145eaac3e05ee66765a4fef06df3c815250815260200160405180604001604052807f2aabde8133f444ee7cadb79cd1c8cf84362ced5dbd35125c425d46336262cfb381526020017f1c343e7d0c14fbf7a0b64c980e618c4fa4dc4b7d13ae859dd3d540d7fed7ecb08152508152508160400181905250604051806040016040528060405180604001604052807f1dff659cb515b093f5244759700741c97e9516bcb741e34f3be96f366677921981526020017f25bf921b76b77f3eb483c754c09a4d4faffb377f10014a4a842575a4a43dec0e815250815260200160405180604001604052807f1a2d788c9018d3f0b45655f8f0d2baa25c68fa38980efb6ed8f7006667b18ee581526020017f28acc13db42fbc3017c1d127168d8e0cf8a4c88751373619c64d7dd41e1c9fd48152508152508160600181905250600360405190808252806020026020018201604052801561366457816020015b61365161444d565b8152602001906001900390816136495790505b50816080018190525060405180604001604052807f24e8b817a42465c45800700f0851d74fca77c955988599260317c3f3a5f1c08681526020017f14b5a05b308b2577fdbb32e0925fd1af3061b1b498d7653ab468b7fec4907229815250816080015160008151811015156136d557fe5b9060200190602002018190525060405180604001604052807f1b25e1b5ce2d624691106a0a1d7016ad0f8d7eeebd28f095e411b84a164f264081526020017f10b3d5e0968b7f0119df82f9583660b64d9c811a0241792c7b57c22d8c8f8dbf8152508160800151600181518110151561374a57fe5b9060200190602002018190525060405180604001604052807f10047f0e793de0ca1a85d78759a5162f816efe7ff34caf9eff511cec281c0bfe81526020017f1810f53f1538efea7cf23a084cc2252586eb408607c4bde7b5f70907896eda01815250816080015160028151811015156137bf57fe5b9060200190602002018190525090565b6137d7614407565b6137df614467565b83600001518160006003811015156137f357fe5b602002018181525050836020015181600160038110151561381057fe5b6020020181815250508281600260038110151561382957fe5b6020020181815250506000606083608084600060076107d05a03f19050806000811461385457613856565bfe5b5080151561386357600080fd5b505092915050565b613873614407565b61387b614489565b836000015181600060048110151561388f57fe5b60200201818152505083602001518160016004811015156138ac57fe5b60200201818152505082600001518160026004811015156138c957fe5b60200201818152505082602001518160036004811015156138e657fe5b602002018181525050600060608360c084600060066107d05a03f19050806000811461391157613913565bfe5b5080151561392057600080fd5b505092915050565b613930614407565b60007f30644e72e131a029b85045b68181585d97816a916871ca8d3c208c16d87cfd4790506000836000015114801561396d575060008360200151145b156139915760405180604001604052806000815260200160008152509150506139bf565b6040518060400160405280846000015181526020018285602001518115156139b557fe5b0683038152509150505b919050565b600060606004604051908082528060200260200182016040528015613a0357816020015b6139f061444d565b8152602001906001900390816139e85790505b50905060606004604051908082528060200260200182016040528015613a4357816020015b613a306144ab565b815260200190600190039081613a285790505b5090508a826000815181101515613a5657fe5b9060200190602002018190525088826001815181101515613a7357fe5b9060200190602002018190525086826002815181101515613a9057fe5b9060200190602002018190525084826003815181101515613aad57fe5b9060200190602002018190525089816000815181101515613aca57fe5b9060200190602002018190525087816001815181101515613ae757fe5b9060200190602002018190525085816002815181101515613b0457fe5b9060200190602002018190525083816003815181101515613b2157fe5b90602001906020020181905250613b388282613fb6565b9250505098975050505050505050565b60008060007fc5d2460186f7233c927e7db2dcc703c0e500b653ca82273b7bfad8045d85a47060001b9050833f9150808214158015613b8a57506000801b8214155b92505050919050565b600073ffffffffffffffffffffffffffffffffffffffff166003600083815260200190815260200160002060009054906101000a900473ffffffffffffffffffffffffffffffffffffffff1673ffffffffffffffffffffffffffffffffffffffff16141515613c505760006003600083815260200190815260200160002060006101000a81548173ffffffffffffffffffffffffffffffffffffffff021916908373ffffffffffffffffffffffffffffffffffffffff1602179055505b50565b6001816000016000828254019250508190555050565b613c8160018260000154613c8c90919063ffffffff16565b816000018190555050565b6000613cce83836040518060400160405280601e81526020017f536166654d6174683a207375627472616374696f6e206f766572666c6f770000815250614249565b905092915050565b6060808690506060869050606086905060608690506060869050606081518351855187518951010101016040519080825280601f01601f191660200182016040528015613d325781602001600182028038833980820191505090505b509050606081905060008090506000809050600090505b8851811015613dbd578881815181101515613d6057fe5b90602001015160f81c60f81b8383806001019450815181101515613d8057fe5b9060200101907effffffffffffffffffffffffffffffffffffffffffffffffffffffffffffff1916908160001a9053508080600101915050613d49565b600090505b8751811015613e36578781815181101515613dd957fe5b90602001015160f81c60f81b8383806001019450815181101515613df957fe5b9060200101907effffffffffffffffffffffffffffffffffffffffffffffffffffffffffffff1916908160001a9053508080600101915050613dc2565b600090505b8651811015613eaf578681815181101515613e5257fe5b90602001015160f81c60f81b8383806001019450815181101515613e7257fe5b9060200101907effffffffffffffffffffffffffffffffffffffffffffffffffffffffffffff1916908160001a9053508080600101915050613e3b565b600090505b8551811015613f28578581815181101515613ecb57fe5b90602001015160f81c60f81b8383806001019450815181101515613eeb57fe5b9060200101907effffffffffffffffffffffffffffffffffffffffffffffffffffffffffffff1916908160001a9053508080600101915050613eb4565b600090505b8451811015613fa1578481815181101515613f4457fe5b90602001015160f81c60f81b8383806001019450815181101515613f6457fe5b9060200101907effffffffffffffffffffffffffffffffffffffffffffffffffffffffffffff1916908160001a9053508080600101915050613f2d565b82995050505050505050505095945050505050565b600081518351141515613fc857600080fd5b60008351905060006006820290506060816040519080825280602002602001820160405280156140075781602001602082028038833980820191505090505b50905060008090505b838110156141e557868181518110151561402657fe5b9060200190602002015160000151826000600684020181518110151561404857fe5b9060200190602002018181525050868181518110151561406457fe5b9060200190602002015160200151826001600684020181518110151561408657fe5b906020019060200201818152505085818151811015156140a257fe5b906020019060200201516000015160006002811015156140be57fe5b602002015182600260068402018151811015156140d757fe5b906020019060200201818152505085818151811015156140f357fe5b9060200190602002015160000151600160028110151561410f57fe5b6020020151826003600684020181518110151561412857fe5b9060200190602002018181525050858181518110151561414457fe5b9060200190602002015160200151600060028110151561416057fe5b6020020151826004600684020181518110151561417957fe5b9060200190602002018181525050858181518110151561419557fe5b906020019060200201516020015160016002811015156141b157fe5b602002015182600560068402018151811015156141ca57fe5b90602001906020020181815250508080600101915050614010565b506141ee6144d1565b60006020826020860260208601600060086107d05a03f19050806000811461421557614217565bfe5b5080151561422457600080fd5b600082600060018110151561423557fe5b602002015114159550505050505092915050565b600083831115829015156142f8576040517f08c379a00000000000000000000000000000000000000000000000000000000081526004018080602001828103825283818151815260200191508051906020019080838360005b838110156142bd5780820151818401526020810190506142a2565b50505050905090810190601f1680156142ea5780820380516001836020036101000a031916815260200191505b509250505060405180910390fd5b5060008385039050809150509392505050565b60405180610100016040528061431f61444d565b815260200161432c6144ab565b815260200161433961444d565b81525090565b828054600181600116156101000203166002900490600052602060002090601f016020900481019282601f1061438057805160ff19168380011785556143ae565b828001600101855582156143ae579182015b828111156143ad578251825591602001919060010190614392565b5b5090506143bb91906144f3565b5090565b604051806101e001604052806143d361444d565b81526020016143e06144ab565b81526020016143ed6144ab565b81526020016143fa6144ab565b8152602001606081525090565b604051806040016040528060008152602001600081525090565b8154818355818111156144485781836000526020600020918201910161444791906144f3565b5b505050565b604051806040016040528060008152602001600081525090565b6040518060600160405280600390602082028038833980820191505090505090565b6040518060800160405280600490602082028038833980820191505090505090565b60405180608001604052806144be614518565b81526020016144cb614518565b81525090565b6040518060200160405280600190602082028038833980820191505090505090565b61451591905b808211156145115760008160009055506001016144f9565b5090565b90565b604051806040016040528060029060208202803883398082019150509050509056fe5265717569726573206e65774f776e6572206973206e6f7420656d707479206164647265737352657175697265732073656e64657220697320636f6e7472616374206f776e65725472616e73616374696f6e207375636365737366756c6c792076657269666965642e526571756972657320746f6b656e20646f6573206e6f7420616c72656164792065786973745265717569726573207472616e7366657220746f206120646966666572656e742061646472657373207468616e207468652073656e6465725265717569726573206d6573736167652073656e64657220746f206265206f776e6572206f7220617070726f76616c20666f7220616c6c20746f2062652074727565a165627a7a72305820c3e4eeec88edf989c5f9d02a044cd26210ad411f6dc59dc3ab8c5c59f03f97d1002952657175697265732073656e64657220697320636f6e7472616374206f776e657268747470733a2f2f73332d75732d776573742d322e616d617a6f6e6177732e636f6d2f756461636974792d626c6f636b636861696e2f63617073746f6e652f",
	"source": "pragma solidity >=0.4.21 <0.6.0;\n\n// TODO define a contract call to the zokrates generated solidity contract <Verifier> or <renamedVerifier>\nimport \"./ERC721Mintable.sol\";\nimport \"./Verifier.sol\";\n\n// TODO define another contract named SolnSquareVerifier that inherits from your ERC721Mintable class\n// SquareVerifier,\ncontract SolnSquareVerifier is\n    Verifier,\n    ERC721Mintable(\"RealEstateToken\", \"RET\")\n{\n    // TODO define a solutions struct that can hold a boolean value & an address\n    struct Solution {\n        bool inUse;\n        address sender;\n    }\n\n    // TODO define an array of the above struct\n    // Defined a mapping to store all Solution structs instead\n\n    // TODO define a mapping to store unique solutions submitted\n    mapping(bytes32 => Solution) private solutions;\n    // TODO Create an event to emit when a solution is added\n    event AddedSolution(bytes32 key, address sender);\n\n    // TODO Create a function to add the solutions to the array and emit the event\n    function addSolution(bytes32 key, address sender) internal {\n        require(!solutions[key].inUse, \"Solution is already in use\");\n        solutions[key].inUse = true;\n        solutions[key].sender = sender;\n        emit AddedSolution(key, sender);\n    }\n\n    // TODO Create a function to mint new NFT only after the solution has been verified\n    //  - make sure the solution is unique (has not been used before)\n    //  - make sure you handle metadata as well as tokenSupply\n    function mintVerified(\n        address to,\n        uint256 tokenId,\n        uint256[2] memory a,\n        uint256[2][2] memory b,\n        uint256[2] memory c,\n        uint256[2] memory inputs\n    ) public {\n        bytes32 key = keccak256(abi.encodePacked(a, b, c, inputs));\n        require(!solutions[key].inUse, \"Solution is already in use\");\n        require(verifyTx(a, b, c, inputs), \"Proof is not Zokrates valid\");\n        addSolution(key, msg.sender);\n        mint(to, tokenId);\n    }\n}\n",
	"sourcePath": "C:\\Users\\diggy\\Documents\\Code\\Bitcoin-Nano\\Project 5\\eth-contracts\\contracts\\SolnSquareVerifier.sol",
	"compiler": {
		"name": "solc",
		"version": "0.5.5+commit.47a71e8f.Emscripten.clang"
	},
	"schemaVersion": "3.4.8",
	"updatedAt": "2022-08-11T15:29:22.475Z",
	"networkType": "ethereum",
	"devdoc": {
		"methods": {
			"__callback(bytes32,string)": {
				"details": "The following `__callback` functions are just placeholders ideally     meant to be defined in child contract when proofs are used.     The function bodies simply silence compiler warnings."
			},
			"isApprovedForAll(address,address)": {
				"details": "Tells whether an operator is approved by a given owner",
				"params": {
					"operator": "operator address which you want to query the approval of",
					"owner": "owner address which you want to query the approval of"
				},
				"return": "bool whether the given operator is approved by the given owner"
			},
			"setApprovalForAll(address,bool)": {
				"details": "Sets or unsets the approval of a given operator An operator is allowed to transfer all tokens of the sender on their behalf",
				"params": {
					"approved": "representing the status of the approval to be set",
					"to": "operator address to set the approval"
				}
			},
			"supportsInterface(bytes4)": {
				"details": "implement supportsInterface(bytes4) using a lookup table"
			},
			"tokenByIndex(uint256)": {
				"details": "Gets the token ID at a given index of all the tokens in this contract Reverts if the index is greater or equal to the total number of tokens",
				"params": {
					"index": "uint256 representing the index to be accessed of the tokens list"
				},
				"return": "uint256 token ID at the given index of the tokens list"
			},
			"tokenOfOwnerByIndex(address,uint256)": {
				"details": "Gets the token ID at a given index of the tokens list of the requested owner",
				"params": {
					"index": "uint256 representing the index to be accessed of the requested tokens list",
					"owner": "address owning the tokens list to be accessed"
				},
				"return": "uint256 token ID at the given index of the tokens list owned by the requested address"
			},
			"totalSupply()": {
				"details": "Gets the total amount of tokens stored by the contract",
				"return": "uint256 representing the total amount of tokens"
			}
		}
	},
	"userdoc": {
		"methods": {}
	}
}