{
  "contractName": "SolnSquareVerifier",
  "abi": [
    {
      "constant": true,
      "inputs": [
        {
          "name": "interfaceId",
          "type": "bytes4"
        }
      ],
      "name": "supportsInterface",
      "outputs": [
        {
          "name": "",
          "type": "bool"
        }
      ],
      "payable": false,
      "stateMutability": "view",
      "type": "function"
    },
    {
      "constant": true,
      "inputs": [
        {
          "name": "tokenId",
          "type": "uint256"
        }
      ],
      "name": "getApproved",
      "outputs": [
        {
          "name": "",
          "type": "address"
        }
      ],
      "payable": false,
      "stateMutability": "view",
      "type": "function"
    },
    {
      "constant": false,
      "inputs": [
        {
          "name": "to",
          "type": "address"
        },
        {
          "name": "tokenId",
          "type": "uint256"
        }
      ],
      "name": "approve",
      "outputs": [],
      "payable": false,
      "stateMutability": "nonpayable",
      "type": "function"
    },
    {
      "constant": true,
      "inputs": [],
      "name": "getSymbol",
      "outputs": [
        {
          "name": "",
          "type": "string"
        }
      ],
      "payable": false,
      "stateMutability": "view",
      "type": "function"
    },
    {
      "constant": false,
      "inputs": [
        {
          "name": "value",
          "type": "bool"
        }
      ],
      "name": "setPaused",
      "outputs": [],
      "payable": false,
      "stateMutability": "nonpayable",
      "type": "function"
    },
    {
      "constant": true,
      "inputs": [],
      "name": "getName",
      "outputs": [
        {
          "name": "",
          "type": "string"
        }
      ],
      "payable": false,
      "stateMutability": "view",
      "type": "function"
    },
    {
      "constant": true,
      "inputs": [],
      "name": "totalSupply",
      "outputs": [
        {
          "name": "",
          "type": "uint256"
        }
      ],
      "payable": false,
      "stateMutability": "view",
      "type": "function"
    },
    {
      "constant": false,
      "inputs": [
        {
          "name": "from",
          "type": "address"
        },
        {
          "name": "to",
          "type": "address"
        },
        {
          "name": "tokenId",
          "type": "uint256"
        }
      ],
      "name": "transferFrom",
      "outputs": [],
      "payable": false,
      "stateMutability": "nonpayable",
      "type": "function"
    },
    {
      "constant": false,
      "inputs": [
        {
          "name": "_myid",
          "type": "bytes32"
        },
        {
          "name": "_result",
          "type": "string"
        }
      ],
      "name": "__callback",
      "outputs": [],
      "payable": false,
      "stateMutability": "nonpayable",
      "type": "function"
    },
    {
      "constant": true,
      "inputs": [
        {
          "name": "owner",
          "type": "address"
        },
        {
          "name": "index",
          "type": "uint256"
        }
      ],
      "name": "tokenOfOwnerByIndex",
      "outputs": [
        {
          "name": "",
          "type": "uint256"
        }
      ],
      "payable": false,
      "stateMutability": "view",
      "type": "function"
    },
    {
      "constant": false,
      "inputs": [
        {
          "name": "_myid",
          "type": "bytes32"
        },
        {
          "name": "_result",
          "type": "string"
        },
        {
          "name": "_proof",
          "type": "bytes"
        }
      ],
      "name": "__callback",
      "outputs": [],
      "payable": false,
      "stateMutability": "nonpayable",
      "type": "function"
    },
    {
      "constant": false,
      "inputs": [
        {
          "name": "from",
          "type": "address"
        },
        {
          "name": "to",
          "type": "address"
        },
        {
          "name": "tokenId",
          "type": "uint256"
        }
      ],
      "name": "safeTransferFrom",
      "outputs": [],
      "payable": false,
      "stateMutability": "nonpayable",
      "type": "function"
    },
    {
      "constant": true,
      "inputs": [
        {
          "name": "index",
          "type": "uint256"
        }
      ],
      "name": "tokenByIndex",
      "outputs": [
        {
          "name": "",
          "type": "uint256"
        }
      ],
      "payable": false,
      "stateMutability": "view",
      "type": "function"
    },
    {
      "constant": false,
      "inputs": [
        {
          "name": "a",
          "type": "uint256[2]"
        },
        {
          "name": "b",
          "type": "uint256[2][2]"
        },
        {
          "name": "c",
          "type": "uint256[2]"
        },
        {
          "name": "input",
          "type": "uint256[2]"
        }
      ],
      "name": "verifyTx",
      "outputs": [
        {
          "name": "r",
          "type": "bool"
        }
      ],
      "payable": false,
      "stateMutability": "nonpayable",
      "type": "function"
    },
    {
      "constant": true,
      "inputs": [
        {
          "name": "tokenId",
          "type": "uint256"
        }
      ],
      "name": "ownerOf",
      "outputs": [
        {
          "name": "",
          "type": "address"
        }
      ],
      "payable": false,
      "stateMutability": "view",
      "type": "function"
    },
    {
      "constant": true,
      "inputs": [
        {
          "name": "owner",
          "type": "address"
        }
      ],
      "name": "balanceOf",
      "outputs": [
        {
          "name": "",
          "type": "uint256"
        }
      ],
      "payable": false,
      "stateMutability": "view",
      "type": "function"
    },
    {
      "constant": true,
      "inputs": [],
      "name": "getOwner",
      "outputs": [
        {
          "name": "",
          "type": "address"
        }
      ],
      "payable": false,
      "stateMutability": "view",
      "type": "function"
    },
    {
      "constant": false,
      "inputs": [
        {
          "name": "to",
          "type": "address"
        },
        {
          "name": "approved",
          "type": "bool"
        }
      ],
      "name": "setApprovalForAll",
      "outputs": [],
      "payable": false,
      "stateMutability": "nonpayable",
      "type": "function"
    },
    {
      "constant": false,
      "inputs": [
        {
          "name": "from",
          "type": "address"
        },
        {
          "name": "to",
          "type": "address"
        },
        {
          "name": "tokenId",
          "type": "uint256"
        },
        {
          "name": "_data",
          "type": "bytes"
        }
      ],
      "name": "safeTransferFrom",
      "outputs": [],
      "payable": false,
      "stateMutability": "nonpayable",
      "type": "function"
    },
    {
      "constant": true,
      "inputs": [],
      "name": "getBaseTokenURI",
      "outputs": [
        {
          "name": "",
          "type": "string"
        }
      ],
      "payable": false,
      "stateMutability": "view",
      "type": "function"
    },
    {
      "constant": true,
      "inputs": [
        {
          "name": "tokenId",
          "type": "uint256"
        }
      ],
      "name": "tokenURI",
      "outputs": [
        {
          "name": "",
          "type": "string"
        }
      ],
      "payable": false,
      "stateMutability": "view",
      "type": "function"
    },
    {
      "constant": true,
      "inputs": [
        {
          "name": "owner",
          "type": "address"
        },
        {
          "name": "operator",
          "type": "address"
        }
      ],
      "name": "isApprovedForAll",
      "outputs": [
        {
          "name": "",
          "type": "bool"
        }
      ],
      "payable": false,
      "stateMutability": "view",
      "type": "function"
    },
    {
      "constant": false,
      "inputs": [
        {
          "name": "newOwner",
          "type": "address"
        }
      ],
      "name": "transferOwnership",
      "outputs": [],
      "payable": false,
      "stateMutability": "nonpayable",
      "type": "function"
    },
    {
      "anonymous": false,
      "inputs": [
        {
          "indexed": false,
          "name": "key",
          "type": "bytes32"
        },
        {
          "indexed": false,
          "name": "sender",
          "type": "address"
        }
      ],
      "name": "AddedSolution",
      "type": "event"
    },
    {
      "anonymous": false,
      "inputs": [
        {
          "indexed": true,
          "name": "from",
          "type": "address"
        },
        {
          "indexed": true,
          "name": "to",
          "type": "address"
        },
        {
          "indexed": true,
          "name": "tokenId",
          "type": "uint256"
        }
      ],
      "name": "Transfer",
      "type": "event"
    },
    {
      "anonymous": false,
      "inputs": [
        {
          "indexed": true,
          "name": "owner",
          "type": "address"
        },
        {
          "indexed": true,
          "name": "approved",
          "type": "address"
        },
        {
          "indexed": true,
          "name": "tokenId",
          "type": "uint256"
        }
      ],
      "name": "Approval",
      "type": "event"
    },
    {
      "anonymous": false,
      "inputs": [
        {
          "indexed": true,
          "name": "owner",
          "type": "address"
        },
        {
          "indexed": true,
          "name": "operator",
          "type": "address"
        },
        {
          "indexed": false,
          "name": "approved",
          "type": "bool"
        }
      ],
      "name": "ApprovalForAll",
      "type": "event"
    },
    {
      "anonymous": false,
      "inputs": [
        {
          "indexed": false,
          "name": "caller",
          "type": "address"
        }
      ],
      "name": "Paused",
      "type": "event"
    },
    {
      "anonymous": false,
      "inputs": [
        {
          "indexed": false,
          "name": "caller",
          "type": "address"
        }
      ],
      "name": "Unpaused",
      "type": "event"
    },
    {
      "anonymous": false,
      "inputs": [
        {
          "indexed": false,
          "name": "nextOwner",
          "type": "address"
        }
      ],
      "name": "OwnershipTransferred",
      "type": "event"
    },
    {
      "anonymous": false,
      "inputs": [
        {
          "indexed": false,
          "name": "s",
          "type": "string"
        }
      ],
      "name": "Verified",
      "type": "event"
    },
    {
      "constant": false,
      "inputs": [
        {
          "name": "to",
          "type": "address"
        },
        {
          "name": "tokenId",
          "type": "uint256"
        }
      ],
      "name": "mint",
      "outputs": [
        {
          "name": "",
          "type": "bool"
        }
      ],
      "payable": false,
      "stateMutability": "nonpayable",
      "type": "function"
    },
    {
      "constant": false,
      "inputs": [
        {
          "name": "to",
          "type": "address"
        },
        {
          "name": "tokenId",
          "type": "uint256"
        },
        {
          "name": "a",
          "type": "uint256[2]"
        },
        {
          "name": "b",
          "type": "uint256[2][2]"
        },
        {
          "name": "c",
          "type": "uint256[2]"
        },
        {
          "name": "inputs",
          "type": "uint256[2]"
        }
      ],
      "name": "mint",
      "outputs": [],
      "payable": false,
      "stateMutability": "nonpayable",
      "type": "function"
    }
  ],
  "bytecode": "0x60806040526040518060600160405280603f815260200162004d58603f9139601390805190602001906200003592919062000560565b5060006015556040518060400160405280600f81526020017f5265616c457374617465546f6b656e00000000000000000000000000000000008152506040518060400160405280600381526020017f5245540000000000000000000000000000000000000000000000000000000000815250818160138054600181600116156101000203166002900480601f016020809104026020016040519081016040528092919081815260200182805460018160011615610100020316600290048015620001435780601f10620001175761010080835404028352916020019162000143565b820191906000526020600020905b8154815290600101906020018083116200012557829003601f168201915b5050505050336000806101000a81548173ffffffffffffffffffffffffffffffffffffffff021916908373ffffffffffffffffffffffffffffffffffffffff1602179055507f04dba622d284ed0014ee4b9a6a68386be1a4c08a4913ae272de89199cc6861636000809054906101000a900473ffffffffffffffffffffffffffffffffffffffff16604051808273ffffffffffffffffffffffffffffffffffffffff1673ffffffffffffffffffffffffffffffffffffffff16815260200191505060405180910390a16200021e60006200031560201b60201c565b620002366301ffc9a760e01b620004be60201b60201c565b6200024e6380ac58cd60e01b620004be60201b60201c565b6200026663780e9d6360e01b620004be60201b60201c565b82600f90805190602001906200027e92919062000560565b5081601090805190602001906200029792919062000560565b508060119080519060200190620002b092919062000560565b50620002c9635b5e139f60e01b620004be60201b60201c565b50505033601460006101000a81548173ffffffffffffffffffffffffffffffffffffffff021916908373ffffffffffffffffffffffffffffffffffffffff16021790555050506200060f565b6000809054906101000a900473ffffffffffffffffffffffffffffffffffffffff1673ffffffffffffffffffffffffffffffffffffffff163373ffffffffffffffffffffffffffffffffffffffff16141515620003be576040517f08c379a000000000000000000000000000000000000000000000000000000000815260040180806020018281038252602181526020018062004d376021913960400191505060405180910390fd5b80600060146101000a81548160ff021916908315150217905550600060149054906101000a900460ff161562000457577f62e78cea01bee320cd4e420270b5ea74000d11b0c9f74754ebdbfc544b05a25833604051808273ffffffffffffffffffffffffffffffffffffffff1673ffffffffffffffffffffffffffffffffffffffff16815260200191505060405180910390a1620004bb565b7f5db9ee0a495bf2e6ff9c91a7834c1ba4fdd244a5e8aa4e537bd38aeae4b073aa33604051808273ffffffffffffffffffffffffffffffffffffffff1673ffffffffffffffffffffffffffffffffffffffff16815260200191505060405180910390a15b50565b63ffffffff60e01b817bffffffffffffffffffffffffffffffffffffffffffffffffffffffff191614151515620004f457600080fd5b6001806000837bffffffffffffffffffffffffffffffffffffffffffffffffffffffff19167bffffffffffffffffffffffffffffffffffffffffffffffffffffffff1916815260200190815260200160002060006101000a81548160ff02191690831515021790555050565b828054600181600116156101000203166002900490600052602060002090601f016020900481019282601f10620005a357805160ff1916838001178555620005d4565b82800160010185558215620005d4579182015b82811115620005d3578251825591602001919060010190620005b6565b5b509050620005e39190620005e7565b5090565b6200060c91905b8082111562000608576000816000905550600101620005ee565b5090565b90565b614718806200061f6000396000f3fe608060405234801561001057600080fd5b50600436106101735760003560e01c806342842e0e116100de578063a22cb46511610097578063c87b56dd11610071578063c87b56dd14610c55578063e985e9c514610cfc578063f2fde38b14610d78578063fec6cfb914610dbc57610173565b8063a22cb46514610a7d578063b88d4fde14610acd578063bdc32be014610bd257610173565b806342842e0e146107445780634f6ccce7146107b2578063621e9ec0146107f45780636352211e1461096d57806370a08231146109db578063893d20e814610a3357610173565b806318160ddd1161013057806318160ddd146103cf57806323b872dd146103ed57806327dc297e1461045b5780632f745c591461052057806338bbfa501461058257806340c10f19146106de57610173565b806301ffc9a714610178578063081812fc146101dd578063095ea7b31461024b578063150704011461029957806316c38b3c1461031c57806317d7de7c1461034c575b600080fd5b6101c36004803603602081101561018e57600080fd5b8101908080357bffffffffffffffffffffffffffffffffffffffffffffffffffffffff19169060200190929190505050610f47565b604051808215151515815260200191505060405180910390f35b610209600480360360208110156101f357600080fd5b8101908080359060200190929190505050610faf565b604051808273ffffffffffffffffffffffffffffffffffffffff1673ffffffffffffffffffffffffffffffffffffffff16815260200191505060405180910390f35b6102976004803603604081101561026157600080fd5b81019080803573ffffffffffffffffffffffffffffffffffffffff16906020019092919080359060200190929190505050611069565b005b6102a16112a6565b6040518080602001828103825283818151815260200191508051906020019080838360005b838110156102e15780820151818401526020810190506102c6565b50505050905090810190601f16801561030e5780820380516001836020036101000a031916815260200191505b509250505060405180910390f35b61034a6004803603602081101561033257600080fd5b81019080803515159060200190929190505050611348565b005b6103546114ed565b6040518080602001828103825283818151815260200191508051906020019080838360005b83811015610394578082015181840152602081019050610379565b50505050905090810190601f1680156103c15780820380516001836020036101000a031916815260200191505b509250505060405180910390f35b6103d761158f565b6040518082815260200191505060405180910390f35b6104596004803603606081101561040357600080fd5b81019080803573ffffffffffffffffffffffffffffffffffffffff169060200190929190803573ffffffffffffffffffffffffffffffffffffffff1690602001909291908035906020019092919050505061159c565b005b61051e6004803603604081101561047157600080fd5b81019080803590602001909291908035906020019064010000000081111561049857600080fd5b8201836020820111156104aa57600080fd5b803590602001918460018302840111640100000000831117156104cc57600080fd5b91908080601f016020809104026020016040519081016040528093929190818152602001838380828437600081840152601f19601f8201169050808301925050505050505091929192905050506115c1565b005b61056c6004803603604081101561053657600080fd5b81019080803573ffffffffffffffffffffffffffffffffffffffff16906020019092919080359060200190929190505050611604565b6040518082815260200191505060405180910390f35b6106dc6004803603606081101561059857600080fd5b8101908080359060200190929190803590602001906401000000008111156105bf57600080fd5b8201836020820111156105d157600080fd5b803590602001918460018302840111640100000000831117156105f357600080fd5b91908080601f016020809104026020016040519081016040528093929190818152602001838380828437600081840152601f19601f8201169050808301925050505050505091929192908035906020019064010000000081111561065657600080fd5b82018360208201111561066857600080fd5b8035906020019184600183028401116401000000008311171561068a57600080fd5b91908080601f016020809104026020016040519081016040528093929190818152602001838380828437600081840152601f19601f82011690508083019250505050505050919291929050505061167b565b005b61072a600480360360408110156106f457600080fd5b81019080803573ffffffffffffffffffffffffffffffffffffffff1690602001909291908035906020019092919050505061169e565b604051808215151515815260200191505060405180910390f35b6107b06004803603606081101561075a57600080fd5b81019080803573ffffffffffffffffffffffffffffffffffffffff169060200190929190803573ffffffffffffffffffffffffffffffffffffffff169060200190929190803590602001909291905050506117cc565b005b6107de600480360360208110156107c857600080fd5b81019080803590602001909291905050506117ec565b6040518082815260200191505060405180910390f35b610953600480360361014081101561080b57600080fd5b8101908080604001906002806020026040519081016040528092919082600260200280828437600081840152601f19601f82011690508083019250505050505091929192908060800190600280602002604051908101604052809291906000905b828210156108c0578382604002016002806020026040519081016040528092919082600260200280828437600081840152601f19601f8201169050808301925050505050508152602001906001019061086c565b50505050919291929080604001906002806020026040519081016040528092919082600260200280828437600081840152601f19601f820116905080830192505050505050919291929080604001906002806020026040519081016040528092919082600260200280828437600081840152601f19601f8201169050808301925050505050509192919290505050611824565b604051808215151515815260200191505060405180910390f35b6109996004803603602081101561098357600080fd5b8101908080359060200190929190505050611a89565b604051808273ffffffffffffffffffffffffffffffffffffffff1673ffffffffffffffffffffffffffffffffffffffff16815260200191505060405180910390f35b610a1d600480360360208110156109f157600080fd5b81019080803573ffffffffffffffffffffffffffffffffffffffff169060200190929190505050611ac6565b6040518082815260200191505060405180910390f35b610a3b611b16565b604051808273ffffffffffffffffffffffffffffffffffffffff1673ffffffffffffffffffffffffffffffffffffffff16815260200191505060405180910390f35b610acb60048036036040811015610a9357600080fd5b81019080803573ffffffffffffffffffffffffffffffffffffffff169060200190929190803515159060200190929190505050611b3f565b005b610bd060048036036080811015610ae357600080fd5b81019080803573ffffffffffffffffffffffffffffffffffffffff169060200190929190803573ffffffffffffffffffffffffffffffffffffffff1690602001909291908035906020019092919080359060200190640100000000811115610b4a57600080fd5b820183602082011115610b5c57600080fd5b80359060200191846001830284011164010000000083111715610b7e57600080fd5b91908080601f016020809104026020016040519081016040528093929190818152602001838380828437600081840152601f19601f820116905080830192505050505050509192919290505050611c7b565b005b610bda611ca3565b6040518080602001828103825283818151815260200191508051906020019080838360005b83811015610c1a578082015181840152602081019050610bff565b50505050905090810190601f168015610c475780820380516001836020036101000a031916815260200191505b509250505060405180910390f35b610c8160048036036020811015610c6b57600080fd5b8101908080359060200190929190505050611d45565b6040518080602001828103825283818151815260200191508051906020019080838360005b83811015610cc1578082015181840152602081019050610ca6565b50505050905090810190601f168015610cee5780820380516001836020036101000a031916815260200191505b509250505060405180910390f35b610d5e60048036036040811015610d1257600080fd5b81019080803573ffffffffffffffffffffffffffffffffffffffff169060200190929190803573ffffffffffffffffffffffffffffffffffffffff169060200190929190505050611e0e565b604051808215151515815260200191505060405180910390f35b610dba60048036036020811015610d8e57600080fd5b81019080803573ffffffffffffffffffffffffffffffffffffffff169060200190929190505050611ea2565b005b610f456004803603610180811015610dd357600080fd5b81019080803573ffffffffffffffffffffffffffffffffffffffff1690602001909291908035906020019092919080604001906002806020026040519081016040528092919082600260200280828437600081840152601f19601f82011690508083019250505050505091929192908060800190600280602002604051908101604052809291906000905b82821015610eb2578382604002016002806020026040519081016040528092919082600260200280828437600081840152601f19601f82011690508083019250505050505081526020019060010190610e5e565b50505050919291929080604001906002806020026040519081016040528092919082600260200280828437600081840152601f19601f820116905080830192505050505050919291929080604001906002806020026040519081016040528092919082600260200280828437600081840152601f19601f8201169050808301925050505050509192919290505050612077565b005b600060016000837bffffffffffffffffffffffffffffffffffffffffffffffffffffffff19167bffffffffffffffffffffffffffffffffffffffffffffffffffffffff1916815260200190815260200160002060009054906101000a900460ff169050919050565b6000610fba826122b4565b151561102e576040517f08c379a000000000000000000000000000000000000000000000000000000000815260040180806020018281038252601e8152602001807f526571756972657320746f6b656e2061637475616c6c7920657869737473000081525060200191505060405180910390fd5b6003600083815260200190815260200160002060009054906101000a900473ffffffffffffffffffffffffffffffffffffffff169050919050565b6002600082815260200190815260200160002060009054906101000a900473ffffffffffffffffffffffffffffffffffffffff1673ffffffffffffffffffffffffffffffffffffffff168273ffffffffffffffffffffffffffffffffffffffff1614151515611123576040517f08c379a00000000000000000000000000000000000000000000000000000000081526004018080602001828103825260388152602001806146736038913960400191505060405180910390fd5b61112b611b16565b73ffffffffffffffffffffffffffffffffffffffff163373ffffffffffffffffffffffffffffffffffffffff1614158061116b575061116a3383611e0e565b5b15156111c2576040517f08c379a00000000000000000000000000000000000000000000000000000000081526004018080602001828103825260428152602001806146ab6042913960600191505060405180910390fd5b816003600083815260200190815260200160002060006101000a81548173ffffffffffffffffffffffffffffffffffffffff021916908373ffffffffffffffffffffffffffffffffffffffff160217905550808273ffffffffffffffffffffffffffffffffffffffff166002600084815260200190815260200160002060009054906101000a900473ffffffffffffffffffffffffffffffffffffffff1673ffffffffffffffffffffffffffffffffffffffff167f8c5be1e5ebec7d5bd14f71427d1e84f3dd0314c0f7b2291e5b200ac8c7c3b92560405160405180910390a45050565b606060108054600181600116156101000203166002900480601f01602080910402602001604051908101604052809291908181526020018280546001816001161561010002031660029004801561133e5780601f106113135761010080835404028352916020019161133e565b820191906000526020600020905b81548152906001019060200180831161132157829003601f168201915b5050505050905090565b6000809054906101000a900473ffffffffffffffffffffffffffffffffffffffff1673ffffffffffffffffffffffffffffffffffffffff163373ffffffffffffffffffffffffffffffffffffffff161415156113ef576040517f08c379a00000000000000000000000000000000000000000000000000000000081526004018080602001828103825260218152602001806145ea6021913960400191505060405180910390fd5b80600060146101000a81548160ff021916908315150217905550600060149054906101000a900460ff1615611486577f62e78cea01bee320cd4e420270b5ea74000d11b0c9f74754ebdbfc544b05a25833604051808273ffffffffffffffffffffffffffffffffffffffff1673ffffffffffffffffffffffffffffffffffffffff16815260200191505060405180910390a16114ea565b7f5db9ee0a495bf2e6ff9c91a7834c1ba4fdd244a5e8aa4e537bd38aeae4b073aa33604051808273ffffffffffffffffffffffffffffffffffffffff1673ffffffffffffffffffffffffffffffffffffffff16815260200191505060405180910390a15b50565b6060600f8054600181600116156101000203166002900480601f0160208091040260200160405190810160405280929190818152602001828054600181600116156101000203166002900480156115855780601f1061155a57610100808354040283529160200191611585565b820191906000526020600020905b81548152906001019060200180831161156857829003601f168201915b5050505050905090565b6000600880549050905090565b6115a63382612326565b15156115b157600080fd5b6115bc8383836123bb565b505050565b611600828260006040519080825280601f01601f1916602001820160405280156115fa5781602001600182028038833980820191505090505b5061167b565b5050565b600061160f83611ac6565b8210151561161c57600080fd5b600660008473ffffffffffffffffffffffffffffffffffffffff1673ffffffffffffffffffffffffffffffffffffffff1681526020019081526020016000208281548110151561166857fe5b9060005260206000200154905092915050565b6000801b600d60008060001b815260200190815260200160002081905550505050565b60008060009054906101000a900473ffffffffffffffffffffffffffffffffffffffff1673ffffffffffffffffffffffffffffffffffffffff163373ffffffffffffffffffffffffffffffffffffffff16141515611747576040517f08c379a00000000000000000000000000000000000000000000000000000000081526004018080602001828103825260218152602001806145ea6021913960400191505060405180910390fd5b600060149054906101000a900460ff161515156117af576040517f08c379a000000000000000000000000000000000000000000000000000000000815260040180806020018281038252602181526020018061462d6021913960400191505060405180910390fd5b6117b983836123df565b6117c282612400565b6001905092915050565b6117e783838360405180602001604052806000815250611c7b565b505050565b60006117f661158f565b8210151561180357600080fd5b60088281548110151561181257fe5b90600052602060002001549050919050565b600061182e614394565b604051806040016040528087600060028110151561184857fe5b6020020151815260200187600160028110151561186157fe5b602002015181525081600001819052506040518060400160405280604051806040016040528088600060028110151561189657fe5b602002015160006002811015156118a957fe5b602002015181526020018860006002811015156118c257fe5b602002015160016002811015156118d557fe5b6020020151815250815260200160405180604001604052808860016002811015156118fc57fe5b6020020151600060028110151561190f57fe5b6020020151815260200188600160028110151561192857fe5b6020020151600160028110151561193b57fe5b60200201518152508152508160200181905250604051806040016040528085600060028110151561196857fe5b6020020151815260200185600160028110151561198157fe5b60200201518152508160400181905250606060026040519080825280602002602001820160405280156119c35781602001602082028038833980820191505090505b50905060008090505b6002811015611a115784816002811015156119e357fe5b602002015182828151811015156119f657fe5b906020019060200201818152505080806001019150506119cc565b506000611a1e8284612553565b1415611a7a577f3f3cfdb26fb5f9f1786ab4f1a1f9cd4c0b5e726cbdfc26e495261731aad44e3960405180806020018281038252602281526020018061460b6022913960400191505060405180910390a1600192505050611a81565b6000925050505b949350505050565b60006002600083815260200190815260200160002060009054906101000a900473ffffffffffffffffffffffffffffffffffffffff169050919050565b6000611b0f600460008473ffffffffffffffffffffffffffffffffffffffff1673ffffffffffffffffffffffffffffffffffffffff1681526020019081526020016000206126db565b9050919050565b60008060009054906101000a900473ffffffffffffffffffffffffffffffffffffffff16905090565b3373ffffffffffffffffffffffffffffffffffffffff168273ffffffffffffffffffffffffffffffffffffffff1614151515611b7a57600080fd5b80600560003373ffffffffffffffffffffffffffffffffffffffff1673ffffffffffffffffffffffffffffffffffffffff16815260200190815260200160002060008473ffffffffffffffffffffffffffffffffffffffff1673ffffffffffffffffffffffffffffffffffffffff16815260200190815260200160002060006101000a81548160ff0219169083151502179055508173ffffffffffffffffffffffffffffffffffffffff163373ffffffffffffffffffffffffffffffffffffffff167f17307eab39ab6107e8899845ad3d59bd9653f200f220920489ca2b5937696c3183604051808215151515815260200191505060405180910390a35050565b611c8684848461159c565b611c92848484846126e9565b1515611c9d57600080fd5b50505050565b606060118054600181600116156101000203166002900480601f016020809104026020016040519081016040528092919081815260200182805460018160011615610100020316600290048015611d3b5780601f10611d1057610100808354040283529160200191611d3b565b820191906000526020600020905b815481529060010190602001808311611d1e57829003601f168201915b5050505050905090565b6060611d50826122b4565b1515611d5b57600080fd5b601260008381526020019081526020016000208054600181600116156101000203166002900480601f016020809104026020016040519081016040528092919081815260200182805460018160011615610100020316600290048015611e025780601f10611dd757610100808354040283529160200191611e02565b820191906000526020600020905b815481529060010190602001808311611de557829003601f168201915b50505050509050919050565b6000600560008473ffffffffffffffffffffffffffffffffffffffff1673ffffffffffffffffffffffffffffffffffffffff16815260200190815260200160002060008373ffffffffffffffffffffffffffffffffffffffff1673ffffffffffffffffffffffffffffffffffffffff16815260200190815260200160002060009054906101000a900460ff16905092915050565b6000809054906101000a900473ffffffffffffffffffffffffffffffffffffffff1673ffffffffffffffffffffffffffffffffffffffff163373ffffffffffffffffffffffffffffffffffffffff16141515611f49576040517f08c379a00000000000000000000000000000000000000000000000000000000081526004018080602001828103825260218152602001806145ea6021913960400191505060405180910390fd5b600073ffffffffffffffffffffffffffffffffffffffff168173ffffffffffffffffffffffffffffffffffffffff1614151515611fd1576040517f08c379a00000000000000000000000000000000000000000000000000000000081526004018080602001828103825260268152602001806145c46026913960400191505060405180910390fd5b806000806101000a81548173ffffffffffffffffffffffffffffffffffffffff021916908373ffffffffffffffffffffffffffffffffffffffff1602179055507f04dba622d284ed0014ee4b9a6a68386be1a4c08a4913ae272de89199cc68616381604051808273ffffffffffffffffffffffffffffffffffffffff1673ffffffffffffffffffffffffffffffffffffffff16815260200191505060405180910390a150565b6000848484846040516020018085600260200280838360005b838110156120ab578082015181840152602081019050612090565b505050509050018460026000925b818410156120ff5782846020020151600260200280838360005b838110156120ee5780820151818401526020810190506120d3565b5050505090500192600101926120b9565b9250505083600260200280838360005b8381101561212a57808201518184015260208101905061210f565b5050505090500182600260200280838360005b8381101561215857808201518184015260208101905061213d565b505050509050019450505050506040516020818303038152906040528051906020012090506016600082815260200190815260200160002060000160009054906101000a900460ff16151515612216576040517f08c379a000000000000000000000000000000000000000000000000000000000815260040180806020018281038252601a8152602001807f536f6c7574696f6e20697320616c726561647920696e2075736500000000000081525060200191505060405180910390fd5b61222285858585611824565b1515612296576040517f08c379a00000000000000000000000000000000000000000000000000000000081526004018080602001828103825260128152602001807f50726f6f66206973206e6f742076616c6964000000000000000000000000000081525060200191505060405180910390fd5b6122a081336128d4565b6122aa878761169e565b5050505050505050565b6000806002600084815260200190815260200160002060009054906101000a900473ffffffffffffffffffffffffffffffffffffffff169050600073ffffffffffffffffffffffffffffffffffffffff168173ffffffffffffffffffffffffffffffffffffffff161415915050919050565b60008061233283611a89565b90508073ffffffffffffffffffffffffffffffffffffffff168473ffffffffffffffffffffffffffffffffffffffff1614806123a157508373ffffffffffffffffffffffffffffffffffffffff1661238984610faf565b73ffffffffffffffffffffffffffffffffffffffff16145b806123b257506123b18185611e0e565b5b91505092915050565b6123c6838383612a7c565b6123d08382612d40565b6123da8282612ee4565b505050565b6123e98282612fab565b6123f38282612ee4565b6123fc816131aa565b5050565b612409816122b4565b151561247d576040517f08c379a00000000000000000000000000000000000000000000000000000000081526004018080602001828103825260158152602001807f526571756972657320746f6b656e20657869737473000000000000000000000081525060200191505060405180910390fd5b61252960118054600181600116156101000203166002900480601f0160208091040260200160405190810160405280929190818152602001828054600181600116156101000203166002900480156125165780601f106124eb57610100808354040283529160200191612516565b820191906000526020600020905b8154815290600101906020018083116124f957829003601f168201915b5050505050612524836131f6565b613330565b60126000838152602001908152602001600020908051906020019061254f9291906143c8565b5050565b6000807f30644e72e131a029b85045b68181585d2833e84879b9709143e1f593f00000019050612581614448565b612589613374565b905080608001515160018651011415156125a257600080fd5b6125aa614490565b6040518060400160405280600081526020016000815250905060008090505b865181101561264e578387828151811015156125e157fe5b906020019060200201511015156125f757600080fd5b61263f8261263a85608001516001850181518110151561261357fe5b906020019060200201518a8581518110151561262b57fe5b906020019060200201516137ce565b61386a565b915080806001019150506125c9565b50612675818360800151600081518110151561266657fe5b9060200190602002015161386a565b90506126bb8560000151866020015161268d84613927565b856040015161269f8a60400151613927565b87606001516126b18960000151613927565b89602001516139c3565b15156126cd57600193505050506126d5565b600093505050505b92915050565b600081600001549050919050565b600061270a8473ffffffffffffffffffffffffffffffffffffffff16613b47565b151561271957600190506128cc565b60008473ffffffffffffffffffffffffffffffffffffffff1663150b7a02338887876040518563ffffffff1660e01b8152600401808573ffffffffffffffffffffffffffffffffffffffff1673ffffffffffffffffffffffffffffffffffffffff1681526020018473ffffffffffffffffffffffffffffffffffffffff1673ffffffffffffffffffffffffffffffffffffffff16815260200183815260200180602001828103825283818151815260200191508051906020019080838360005b838110156127f45780820151818401526020810190506127d9565b50505050905090810190601f1680156128215780820380516001836020036101000a031916815260200191505b5095505050505050602060405180830381600087803b15801561284357600080fd5b505af1158015612857573d6000803e3d6000fd5b505050506040513d602081101561286d57600080fd5b8101908080519060200190929190505050905063150b7a0260e01b7bffffffffffffffffffffffffffffffffffffffffffffffffffffffff1916817bffffffffffffffffffffffffffffffffffffffffffffffffffffffff1916149150505b949350505050565b6016600083815260200190815260200160002060000160009054906101000a900460ff1615151561296d576040517f08c379a000000000000000000000000000000000000000000000000000000000815260040180806020018281038252601a8152602001807f536f6c7574696f6e20697320616c726561647920696e2075736500000000000081525060200191505060405180910390fd5b6129836001601554613b9290919063ffffffff16565b60158190555060016016600084815260200190815260200160002060000160006101000a81548160ff021916908315150217905550806016600084815260200190815260200160002060000160016101000a81548173ffffffffffffffffffffffffffffffffffffffff021916908373ffffffffffffffffffffffffffffffffffffffff1602179055507f794f800bcc1704bbac3deeba70adfa76e678654f9b36f11b1e02eeb99c498ea08282604051808381526020018273ffffffffffffffffffffffffffffffffffffffff1673ffffffffffffffffffffffffffffffffffffffff1681526020019250505060405180910390a15050565b6002600082815260200190815260200160002060009054906101000a900473ffffffffffffffffffffffffffffffffffffffff1673ffffffffffffffffffffffffffffffffffffffff168373ffffffffffffffffffffffffffffffffffffffff16141515612b52576040517f08c379a00000000000000000000000000000000000000000000000000000000081526004018080602001828103825260188152602001807f5265717569726573206f776e65722069732073656e646572000000000000000081525060200191505060405180910390fd5b600073ffffffffffffffffffffffffffffffffffffffff168273ffffffffffffffffffffffffffffffffffffffff1614151515612bf7576040517f08c379a00000000000000000000000000000000000000000000000000000000081526004018080602001828103825260198152602001807f526571756972657320616464726573732069732076616c69640000000000000081525060200191505060405180910390fd5b612c0081613c1c565b612c47600460008473ffffffffffffffffffffffffffffffffffffffff1673ffffffffffffffffffffffffffffffffffffffff168152602001908152602001600020613cdc565b612c8e600460008573ffffffffffffffffffffffffffffffffffffffff1673ffffffffffffffffffffffffffffffffffffffff168152602001908152602001600020613cf2565b816002600083815260200190815260200160002060006101000a81548173ffffffffffffffffffffffffffffffffffffffff021916908373ffffffffffffffffffffffffffffffffffffffff160217905550808273ffffffffffffffffffffffffffffffffffffffff168473ffffffffffffffffffffffffffffffffffffffff167fddf252ad1be2c89b69c2b068fc378daa952ba7f163c4a11628f55a4df523b3ef60405160405180910390a4505050565b6000612d986001600660008673ffffffffffffffffffffffffffffffffffffffff1673ffffffffffffffffffffffffffffffffffffffff16815260200190815260200160002080549050613d1590919063ffffffff16565b90506000600760008481526020019081526020016000205490508181141515612e8b576000600660008673ffffffffffffffffffffffffffffffffffffffff1673ffffffffffffffffffffffffffffffffffffffff16815260200190815260200160002083815481101515612e0957fe5b9060005260206000200154905080600660008773ffffffffffffffffffffffffffffffffffffffff1673ffffffffffffffffffffffffffffffffffffffff16815260200190815260200160002083815481101515612e6357fe5b9060005260206000200181905550816007600083815260200190815260200160002081905550505b600660008573ffffffffffffffffffffffffffffffffffffffff1673ffffffffffffffffffffffffffffffffffffffff168152602001908152602001600020805480919060019003612edd91906144aa565b5050505050565b600660008373ffffffffffffffffffffffffffffffffffffffff1673ffffffffffffffffffffffffffffffffffffffff168152602001908152602001600020805490506007600083815260200190815260200160002081905550600660008373ffffffffffffffffffffffffffffffffffffffff1673ffffffffffffffffffffffffffffffffffffffff1681526020019081526020016000208190806001815401808255809150509060018203906000526020600020016000909192909190915055505050565b612fb4816122b4565b15151561300c576040517f08c379a000000000000000000000000000000000000000000000000000000000815260040180806020018281038252602581526020018061464e6025913960400191505060405180910390fd5b600073ffffffffffffffffffffffffffffffffffffffff168273ffffffffffffffffffffffffffffffffffffffff16141515156130b1576040517f08c379a000000000000000000000000000000000000000000000000000000000815260040180806020018281038252601e8152602001807f5265717569726573206164646472657373206973206e6f7420656d707479000081525060200191505060405180910390fd5b816002600083815260200190815260200160002060006101000a81548173ffffffffffffffffffffffffffffffffffffffff021916908373ffffffffffffffffffffffffffffffffffffffff16021790555061314a600460008473ffffffffffffffffffffffffffffffffffffffff1673ffffffffffffffffffffffffffffffffffffffff168152602001908152602001600020613cdc565b808273ffffffffffffffffffffffffffffffffffffffff16600073ffffffffffffffffffffffffffffffffffffffff167fddf252ad1be2c89b69c2b068fc378daa952ba7f163c4a11628f55a4df523b3ef60405160405180910390a45050565b6008805490506009600083815260200190815260200160002081905550600881908060018154018082558091505090600182039060005260206000200160009091929091909150555050565b6060600082141561323e576040518060400160405280600181526020017f3000000000000000000000000000000000000000000000000000000000000000815250905061332b565b600082905060005b60008214151561326c578080600101915050600a8281151561326457fe5b049150613246565b6060816040519080825280601f01601f1916602001820160405280156132a15781602001600182028038833980820191505090505b50905060006001830390505b60008614151561332357600a868115156132c357fe5b0660300160f81b8282806001900393508151811015156132df57fe5b9060200101907effffffffffffffffffffffffffffffffffffffffffffffffffffffffffffff1916908160001a905350600a8681151561331b57fe5b0495506132ad565b819450505050505b919050565b606061336c8383604051806020016040528060008152506040518060200160405280600081525060405180602001604052806000815250613d5f565b905092915050565b61337c614448565b60405180604001604052807f15dbf86cf49c8fb3cea1bf79752eee1e4f8607fedc5a8756d155b67dc181964081526020017f09865873e4e75c7fc93eb3c87b93f3bfc16025f42e10fdfbe6e90b7df4ba38798152508160000181905250604051806040016040528060405180604001604052807f0f3520f3bdc2900eb56b84b098ffd8087fab2298d50c08c1adda952af8bcbaed81526020017f29fcb850828e4c051eefb3cacd794d8129ae655b647318b12c40900aba23e278815250815260200160405180604001604052807f0b5d45db4177dc6e0bd19830eab33c42f44888751a710ea48e3bc0da70b0f9cf81526020017f2c1436f5469c7d31deb22bde2392b8b336494f67a3bd8386926f4d6013ecc4c78152508152508160200181905250604051806040016040528060405180604001604052807f2e3dfc112b9842ca1db3f531bff67da12448ca2535eb4c4a06f8419870f1164981526020017f111f2157df84fde4acb087ceffabf4cc6d9145eaac3e05ee66765a4fef06df3c815250815260200160405180604001604052807f2aabde8133f444ee7cadb79cd1c8cf84362ced5dbd35125c425d46336262cfb381526020017f1c343e7d0c14fbf7a0b64c980e618c4fa4dc4b7d13ae859dd3d540d7fed7ecb08152508152508160400181905250604051806040016040528060405180604001604052807f1dff659cb515b093f5244759700741c97e9516bcb741e34f3be96f366677921981526020017f25bf921b76b77f3eb483c754c09a4d4faffb377f10014a4a842575a4a43dec0e815250815260200160405180604001604052807f1a2d788c9018d3f0b45655f8f0d2baa25c68fa38980efb6ed8f7006667b18ee581526020017f28acc13db42fbc3017c1d127168d8e0cf8a4c88751373619c64d7dd41e1c9fd48152508152508160600181905250600360405190808252806020026020018201604052801561366357816020015b6136506144d6565b8152602001906001900390816136485790505b50816080018190525060405180604001604052807f24e8b817a42465c45800700f0851d74fca77c955988599260317c3f3a5f1c08681526020017f14b5a05b308b2577fdbb32e0925fd1af3061b1b498d7653ab468b7fec4907229815250816080015160008151811015156136d457fe5b9060200190602002018190525060405180604001604052807f1b25e1b5ce2d624691106a0a1d7016ad0f8d7eeebd28f095e411b84a164f264081526020017f10b3d5e0968b7f0119df82f9583660b64d9c811a0241792c7b57c22d8c8f8dbf8152508160800151600181518110151561374957fe5b9060200190602002018190525060405180604001604052807f10047f0e793de0ca1a85d78759a5162f816efe7ff34caf9eff511cec281c0bfe81526020017f1810f53f1538efea7cf23a084cc2252586eb408607c4bde7b5f70907896eda01815250816080015160028151811015156137be57fe5b9060200190602002018190525090565b6137d6614490565b6137de6144f0565b83600001518160006003811015156137f257fe5b602002018181525050836020015181600160038110151561380f57fe5b6020020181815250508281600260038110151561382857fe5b6020020181815250506000606083608084600060076107d05a03f19050806000811461385357613855565bfe5b5080151561386257600080fd5b505092915050565b613872614490565b61387a614512565b836000015181600060048110151561388e57fe5b60200201818152505083602001518160016004811015156138ab57fe5b60200201818152505082600001518160026004811015156138c857fe5b60200201818152505082602001518160036004811015156138e557fe5b602002018181525050600060608360c084600060066107d05a03f19050806000811461391057613912565bfe5b5080151561391f57600080fd5b505092915050565b61392f614490565b60007f30644e72e131a029b85045b68181585d97816a916871ca8d3c208c16d87cfd4790506000836000015114801561396c575060008360200151145b156139905760405180604001604052806000815260200160008152509150506139be565b6040518060400160405280846000015181526020018285602001518115156139b457fe5b0683038152509150505b919050565b600060606004604051908082528060200260200182016040528015613a0257816020015b6139ef6144d6565b8152602001906001900390816139e75790505b50905060606004604051908082528060200260200182016040528015613a4257816020015b613a2f614534565b815260200190600190039081613a275790505b5090508a826000815181101515613a5557fe5b9060200190602002018190525088826001815181101515613a7257fe5b9060200190602002018190525086826002815181101515613a8f57fe5b9060200190602002018190525084826003815181101515613aac57fe5b9060200190602002018190525089816000815181101515613ac957fe5b9060200190602002018190525087816001815181101515613ae657fe5b9060200190602002018190525085816002815181101515613b0357fe5b9060200190602002018190525083816003815181101515613b2057fe5b90602001906020020181905250613b37828261403f565b9250505098975050505050505050565b60008060007fc5d2460186f7233c927e7db2dcc703c0e500b653ca82273b7bfad8045d85a47060001b9050833f9150808214158015613b8957506000801b8214155b92505050919050565b6000808284019050838110151515613c12576040517f08c379a000000000000000000000000000000000000000000000000000000000815260040180806020018281038252601b8152602001807f536166654d6174683a206164646974696f6e206f766572666c6f77000000000081525060200191505060405180910390fd5b8091505092915050565b600073ffffffffffffffffffffffffffffffffffffffff166003600083815260200190815260200160002060009054906101000a900473ffffffffffffffffffffffffffffffffffffffff1673ffffffffffffffffffffffffffffffffffffffff16141515613cd95760006003600083815260200190815260200160002060006101000a81548173ffffffffffffffffffffffffffffffffffffffff021916908373ffffffffffffffffffffffffffffffffffffffff1602179055505b50565b6001816000016000828254019250508190555050565b613d0a60018260000154613d1590919063ffffffff16565b816000018190555050565b6000613d5783836040518060400160405280601e81526020017f536166654d6174683a207375627472616374696f6e206f766572666c6f7700008152506142d2565b905092915050565b6060808690506060869050606086905060608690506060869050606081518351855187518951010101016040519080825280601f01601f191660200182016040528015613dbb5781602001600182028038833980820191505090505b509050606081905060008090506000809050600090505b8851811015613e46578881815181101515613de957fe5b90602001015160f81c60f81b8383806001019450815181101515613e0957fe5b9060200101907effffffffffffffffffffffffffffffffffffffffffffffffffffffffffffff1916908160001a9053508080600101915050613dd2565b600090505b8751811015613ebf578781815181101515613e6257fe5b90602001015160f81c60f81b8383806001019450815181101515613e8257fe5b9060200101907effffffffffffffffffffffffffffffffffffffffffffffffffffffffffffff1916908160001a9053508080600101915050613e4b565b600090505b8651811015613f38578681815181101515613edb57fe5b90602001015160f81c60f81b8383806001019450815181101515613efb57fe5b9060200101907effffffffffffffffffffffffffffffffffffffffffffffffffffffffffffff1916908160001a9053508080600101915050613ec4565b600090505b8551811015613fb1578581815181101515613f5457fe5b90602001015160f81c60f81b8383806001019450815181101515613f7457fe5b9060200101907effffffffffffffffffffffffffffffffffffffffffffffffffffffffffffff1916908160001a9053508080600101915050613f3d565b600090505b845181101561402a578481815181101515613fcd57fe5b90602001015160f81c60f81b8383806001019450815181101515613fed57fe5b9060200101907effffffffffffffffffffffffffffffffffffffffffffffffffffffffffffff1916908160001a9053508080600101915050613fb6565b82995050505050505050505095945050505050565b60008151835114151561405157600080fd5b60008351905060006006820290506060816040519080825280602002602001820160405280156140905781602001602082028038833980820191505090505b50905060008090505b8381101561426e5786818151811015156140af57fe5b906020019060200201516000015182600060068402018151811015156140d157fe5b906020019060200201818152505086818151811015156140ed57fe5b9060200190602002015160200151826001600684020181518110151561410f57fe5b9060200190602002018181525050858181518110151561412b57fe5b9060200190602002015160000151600060028110151561414757fe5b6020020151826002600684020181518110151561416057fe5b9060200190602002018181525050858181518110151561417c57fe5b9060200190602002015160000151600160028110151561419857fe5b602002015182600360068402018151811015156141b157fe5b906020019060200201818152505085818151811015156141cd57fe5b906020019060200201516020015160006002811015156141e957fe5b6020020151826004600684020181518110151561420257fe5b9060200190602002018181525050858181518110151561421e57fe5b9060200190602002015160200151600160028110151561423a57fe5b6020020151826005600684020181518110151561425357fe5b90602001906020020181815250508080600101915050614099565b5061427761455a565b60006020826020860260208601600060086107d05a03f19050806000811461429e576142a0565bfe5b508015156142ad57600080fd5b60008260006001811015156142be57fe5b602002015114159550505050505092915050565b60008383111582901515614381576040517f08c379a00000000000000000000000000000000000000000000000000000000081526004018080602001828103825283818151815260200191508051906020019080838360005b8381101561434657808201518184015260208101905061432b565b50505050905090810190601f1680156143735780820380516001836020036101000a031916815260200191505b509250505060405180910390fd5b5060008385039050809150509392505050565b6040518061010001604052806143a86144d6565b81526020016143b5614534565b81526020016143c26144d6565b81525090565b828054600181600116156101000203166002900490600052602060002090601f016020900481019282601f1061440957805160ff1916838001178555614437565b82800160010185558215614437579182015b8281111561443657825182559160200191906001019061441b565b5b509050614444919061457c565b5090565b604051806101e0016040528061445c6144d6565b8152602001614469614534565b8152602001614476614534565b8152602001614483614534565b8152602001606081525090565b604051806040016040528060008152602001600081525090565b8154818355818111156144d1578183600052602060002091820191016144d0919061457c565b5b505050565b604051806040016040528060008152602001600081525090565b6040518060600160405280600390602082028038833980820191505090505090565b6040518060800160405280600490602082028038833980820191505090505090565b60405180608001604052806145476145a1565b81526020016145546145a1565b81525090565b6040518060200160405280600190602082028038833980820191505090505090565b61459e91905b8082111561459a576000816000905550600101614582565b5090565b90565b604051806040016040528060029060208202803883398082019150509050509056fe5265717569726573206e65774f776e6572206973206e6f7420656d707479206164647265737352657175697265732073656e64657220697320636f6e7472616374206f776e65725472616e73616374696f6e207375636365737366756c6c792076657269666965642e526571756972657320636f6e747261637420697320696e20706c6179206d6f6465526571756972657320746f6b656e20646f6573206e6f7420616c72656164792065786973745265717569726573207472616e7366657220746f206120646966666572656e742061646472657373207468616e207468652073656e6465725265717569726573206d6573736167652073656e64657220746f206265206f776e6572206f7220617070726f76616c20666f7220616c6c20746f2062652074727565a165627a7a72305820bef9f62147d7a9cd042e6c569d1f8e98fdad4884cab46ce94e13d2233c93a40c002952657175697265732073656e64657220697320636f6e7472616374206f776e657268747470733a2f2f73332d75732d776573742d322e616d617a6f6e6177732e636f6d2f756461636974792d626c6f636b636861696e2f63617073746f6e652f",
  "source": "pragma solidity >=0.4.21 <0.6.0;\n\n// TODO define a contract call to the zokrates generated solidity contract <Verifier> or <renamedVerifier>\nimport \"./ERC721Mintable.sol\";\nimport \"./Verifier.sol\";\nimport \"openzeppelin-solidity/contracts/math/SafeMath.sol\";\n\n// TODO define another contract named SolnSquareVerifier that inherits from your ERC721Mintable class\n// SquareVerifier,\ncontract SolnSquareVerifier is\n    Verifier,\n    ERC721Mintable(\"RealEstateToken\", \"RET\")\n{\n    // TODO define a solutions struct that can hold an index & an address\n    struct Solution {\n        bool isUsed;\n        address sender;\n    }\n\n    uint256 solutionCount = 0;\n    // TODO define an array of the above struct\n    // Defined a mapping to store all Solution structs\n    // TODO define a mapping to store unique solutions submitted\n    mapping(bytes32 => Solution) private solutions;\n    // TODO Create an event to emit when a solution is added\n    event AddedSolution(bytes32 key, address sender);\n\n    // TODO Create a function to add the solutions to the array and emit the event\n    function addSolution(bytes32 key, address sender) internal {\n        require(!solutions[key].isUsed, \"Solution is already in use\");\n        solutionCount = solutionCount.add(1);\n        solutions[key].isUsed = true;\n        solutions[key].sender = sender;\n        emit AddedSolution(key, sender);\n    }\n\n    // TODO Create a function to mint new NFT only after the solution has been verified\n    //  - make sure the solution is unique (has not been used before)\n    //  - make sure you handle metadata as well as tokenSuplly\n    function mint(\n        address to,\n        uint256 tokenId,\n        uint256[2] memory a,\n        uint256[2][2] memory b,\n        uint256[2] memory c,\n        uint256[2] memory inputs\n    ) public {\n        bytes32 key = keccak256(abi.encodePacked(a, b, c, inputs));\n        require(!solutions[key].isUsed, \"Solution is already in use\");\n        require(verifyTx(a, b, c, inputs), \"Proof is not valid\");\n        addSolution(key, msg.sender);\n        mint(to, tokenId);\n    }\n}\n",
  "sourcePath": "C:\\Users\\diggy\\Documents\\Code\\Bitcoin-Nano\\Project 5\\eth-contracts\\contracts\\SolnSquareVerifier.sol",
  "compiler": {
    "name": "solc",
    "version": "0.5.5+commit.47a71e8f.Emscripten.clang"
  },
  "schemaVersion": "3.4.8",
  "updatedAt": "2022-08-11T02:52:10.052Z",
  "devdoc": {
    "methods": {
      "__callback(bytes32,string)": {
        "details": "The following `__callback` functions are just placeholders ideally     meant to be defined in child contract when proofs are used.     The function bodies simply silence compiler warnings."
      },
      "isApprovedForAll(address,address)": {
        "details": "Tells whether an operator is approved by a given owner",
        "params": {
          "operator": "operator address which you want to query the approval of",
          "owner": "owner address which you want to query the approval of"
        },
        "return": "bool whether the given operator is approved by the given owner"
      },
      "setApprovalForAll(address,bool)": {
        "details": "Sets or unsets the approval of a given operator An operator is allowed to transfer all tokens of the sender on their behalf",
        "params": {
          "approved": "representing the status of the approval to be set",
          "to": "operator address to set the approval"
        }
      },
      "supportsInterface(bytes4)": {
        "details": "implement supportsInterface(bytes4) using a lookup table"
      },
      "tokenByIndex(uint256)": {
        "details": "Gets the token ID at a given index of all the tokens in this contract Reverts if the index is greater or equal to the total number of tokens",
        "params": {
          "index": "uint256 representing the index to be accessed of the tokens list"
        },
        "return": "uint256 token ID at the given index of the tokens list"
      },
      "tokenOfOwnerByIndex(address,uint256)": {
        "details": "Gets the token ID at a given index of the tokens list of the requested owner",
        "params": {
          "index": "uint256 representing the index to be accessed of the requested tokens list",
          "owner": "address owning the tokens list to be accessed"
        },
        "return": "uint256 token ID at the given index of the tokens list owned by the requested address"
      },
      "totalSupply()": {
        "details": "Gets the total amount of tokens stored by the contract",
        "return": "uint256 representing the total amount of tokens"
      }
    }
  },
  "userdoc": {
    "methods": {}
  }
}