{
  "contractName": "ConsumerRole",
  "abi": [
    {
      "inputs": [],
      "stateMutability": "nonpayable",
      "type": "constructor"
    },
    {
      "anonymous": false,
      "inputs": [
        {
          "indexed": true,
          "internalType": "address",
          "name": "account",
          "type": "address"
        }
      ],
      "name": "ConsumerAdded",
      "type": "event"
    },
    {
      "anonymous": false,
      "inputs": [
        {
          "indexed": true,
          "internalType": "address",
          "name": "account",
          "type": "address"
        }
      ],
      "name": "ConsumerRemoved",
      "type": "event"
    },
    {
      "inputs": [
        {
          "internalType": "address",
          "name": "account",
          "type": "address"
        }
      ],
      "name": "isConsumer",
      "outputs": [
        {
          "internalType": "bool",
          "name": "",
          "type": "bool"
        }
      ],
      "stateMutability": "view",
      "type": "function",
      "constant": true
    },
    {
      "inputs": [
        {
          "internalType": "address",
          "name": "account",
          "type": "address"
        }
      ],
      "name": "addConsumer",
      "outputs": [],
      "stateMutability": "nonpayable",
      "type": "function"
    },
    {
      "inputs": [],
      "name": "renounceConsumer",
      "outputs": [],
      "stateMutability": "nonpayable",
      "type": "function"
    }
  ],
  "bytecode": "0x608060405234801561001057600080fd5b506100203361002560201b60201c565b6101c7565b61003d81600061008360201b6100e21790919060201c565b8073ffffffffffffffffffffffffffffffffffffffff167f28b26e7a3d20aedbc5f8f2ebf7da671c0491723a2b78f47a097b0e46dee0714260405160405180910390a250565b600073ffffffffffffffffffffffffffffffffffffffff168173ffffffffffffffffffffffffffffffffffffffff1614156100bd57600080fd5b6100cd828261013560201b60201c565b156100d757600080fd5b60018260000160008373ffffffffffffffffffffffffffffffffffffffff1673ffffffffffffffffffffffffffffffffffffffff16815260200190815260200160002060006101000a81548160ff0219169083151502179055505050565b60008073ffffffffffffffffffffffffffffffffffffffff168273ffffffffffffffffffffffffffffffffffffffff16141561017057600080fd5b8260000160008373ffffffffffffffffffffffffffffffffffffffff1673ffffffffffffffffffffffffffffffffffffffff16815260200190815260200160002060009054906101000a900460ff16905092915050565b610472806101d66000396000f3fe608060405234801561001057600080fd5b50600436106100415760003560e01c8063112940f91461004657806361e6982d14610062578063834ff7391461006c575b600080fd5b610060600480360381019061005b9190610394565b61009c565b005b61006a6100ba565b005b61008660048036038101906100819190610394565b6100c5565b60405161009391906103cc565b60405180910390f35b6100a5336100c5565b6100ae57600080fd5b6100b78161018e565b50565b6100c3336101e8565b565b60006100db82600061024290919063ffffffff16565b9050919050565b600073ffffffffffffffffffffffffffffffffffffffff168173ffffffffffffffffffffffffffffffffffffffff16141561011c57600080fd5b6101268282610242565b1561013057600080fd5b60018260000160008373ffffffffffffffffffffffffffffffffffffffff1673ffffffffffffffffffffffffffffffffffffffff16815260200190815260200160002060006101000a81548160ff0219169083151502179055505050565b6101a28160006100e290919063ffffffff16565b8073ffffffffffffffffffffffffffffffffffffffff167f28b26e7a3d20aedbc5f8f2ebf7da671c0491723a2b78f47a097b0e46dee0714260405160405180910390a250565b6101fc8160006102d490919063ffffffff16565b8073ffffffffffffffffffffffffffffffffffffffff167fe3f5ed5f263f1f01764a96edfc7d025f511ec5f7d180e8816908b78bcf74f09860405160405180910390a250565b60008073ffffffffffffffffffffffffffffffffffffffff168273ffffffffffffffffffffffffffffffffffffffff16141561027d57600080fd5b8260000160008373ffffffffffffffffffffffffffffffffffffffff1673ffffffffffffffffffffffffffffffffffffffff16815260200190815260200160002060009054906101000a900460ff16905092915050565b600073ffffffffffffffffffffffffffffffffffffffff168173ffffffffffffffffffffffffffffffffffffffff16141561030e57600080fd5b6103188282610242565b61032157600080fd5b60008260000160008373ffffffffffffffffffffffffffffffffffffffff1673ffffffffffffffffffffffffffffffffffffffff16815260200190815260200160002060006101000a81548160ff0219169083151502179055505050565b60008135905061038e81610425565b92915050565b6000602082840312156103a657600080fd5b60006103b48482850161037f565b91505092915050565b6103c6816103f9565b82525050565b60006020820190506103e160008301846103bd565b92915050565b60006103f282610405565b9050919050565b60008115159050919050565b600073ffffffffffffffffffffffffffffffffffffffff82169050919050565b61042e816103e7565b811461043957600080fd5b5056fea2646970667358221220cfda85f07ed36fc18d711031ee6dee5f11a20dc71fefe1053d52708b362297c464736f6c63430008010033",
  "immutableReferences": {},
  "source": "// SPDX-License-Identifier: MIT\npragma solidity >=0.8.1;\n\n// Import the library 'Roles'\nimport \"./Roles.sol\";\n\n// Define a contract 'ConsumerRole' to manage this role - add, remove, check\ncontract ConsumerRole {\n    using Roles for Roles.Role;\n\n    // Define 2 events, one for Adding, and other for Removing\n    event ConsumerAdded(address indexed account);\n    event ConsumerRemoved(address indexed account);\n\n    // Define a struct 'consumers' by inheriting from 'Roles' library, struct Role\n    Roles.Role private consumers;\n\n    // In the constructor make the address that deploys this contract the 1st consumer\n    constructor() {\n        _addConsumer(msg.sender);\n    }\n\n    // Define a modifier that checks to see if msg.sender has the appropriate role\n    modifier onlyConsumer() {\n        require(isConsumer(msg.sender));\n        _;\n    }\n\n    // Define a function 'isConsumer' to check this role\n    function isConsumer(address account) public view returns (bool) {\n        return consumers.has(account);\n    }\n\n    // Define a function 'addConsumer' that adds this role\n    function addConsumer(address account) public onlyConsumer {\n        _addConsumer(account);\n    }\n\n    // Define a function 'renounceConsumer' to renounce this role\n    function renounceConsumer() public {\n        _removeConsumer(msg.sender);\n    }\n\n    // Define an internal function '_addConsumer' to add this role, called by 'addConsumer'\n    function _addConsumer(address account) internal {\n        consumers.add(account);\n        emit ConsumerAdded(account);\n    }\n\n    // Define an internal function '_removeConsumer' to remove this role, called by 'removeConsumer'\n    function _removeConsumer(address account) internal {\n        consumers.remove(account);\n        emit ConsumerRemoved(account);\n    }\n}\n",
  "sourcePath": "C:\\Users\\diggy\\Documents\\Code\\Bitcoin-Nano\\Project 3\\project-6\\contracts\\coffeeaccesscontrol\\ConsumerRole.sol",
  "compiler": {
    "name": "solc",
    "version": "0.8.1+commit.df193b15.Emscripten.clang"
  },
  "schemaVersion": "3.4.7",
  "updatedAt": "2022-07-01T02:14:48.527Z",
  "networkType": "ethereum",
  "devdoc": {
    "kind": "dev",
    "methods": {},
    "version": 1
  },
  "userdoc": {
    "kind": "user",
    "methods": {},
    "version": 1
  }
}